{
  "abi": [
    {
      "anonymous": false,
      "inputs": [
        {
          "indexed": true,
          "internalType": "uint256",
          "name": "taskId",
          "type": "uint256"
        },
        {
          "indexed": false,
          "internalType": "uint256",
          "name": "amount",
          "type": "uint256"
        }
      ],
      "name": "BountyReclaimed",
      "type": "event"
    },
    {
      "anonymous": false,
      "inputs": [
        {
          "indexed": true,
          "internalType": "uint256",
          "name": "taskId",
          "type": "uint256"
        },
        {
          "indexed": true,
          "internalType": "address",
          "name": "solver",
          "type": "address"
        },
        {
          "indexed": false,
          "internalType": "uint256",
          "name": "amount",
          "type": "uint256"
        }
      ],
      "name": "BountyReleased",
      "type": "event"
    },
    {
      "anonymous": false,
      "inputs": [
        {
          "indexed": true,
          "internalType": "uint256",
          "name": "taskId",
          "type": "uint256"
        },
        {
          "indexed": true,
          "internalType": "address",
          "name": "solver",
          "type": "address"
        },
        {
          "indexed": false,
          "internalType": "string",
          "name": "solutionHash",
          "type": "string"
        }
      ],
      "name": "SolutionSubmitted",
      "type": "event"
    },
    {
      "anonymous": false,
      "inputs": [
        {
          "indexed": true,
          "internalType": "uint256",
          "name": "taskId",
          "type": "uint256"
        },
        {
          "indexed": true,
          "internalType": "address",
          "name": "creator",
          "type": "address"
        },
        {
          "indexed": false,
          "internalType": "uint256",
          "name": "amount",
          "type": "uint256"
        },
        {
          "indexed": false,
          "internalType": "string",
          "name": "description",
          "type": "string"
        }
      ],
      "name": "TaskPosted",
      "type": "event"
    },
    {
      "inputs": [],
      "name": "nextTaskId",
      "outputs": [
        {
          "internalType": "uint256",
          "name": "",
          "type": "uint256"
        }
      ],
      "stateMutability": "view",
      "type": "function"
    },
    {
      "inputs": [
        {
          "internalType": "address",
          "name": "_token",
          "type": "address"
        },
        {
          "internalType": "uint256",
          "name": "_amount",
          "type": "uint256"
        },
        {
          "internalType": "string",
          "name": "_description",
          "type": "string"
        }
      ],
      "name": "postTask",
      "outputs": [],
      "stateMutability": "nonpayable",
      "type": "function"
    },
    {
      "inputs": [
        {
          "internalType": "uint256",
          "name": "_taskId",
          "type": "uint256"
        }
      ],
      "name": "reclaimBounty",
      "outputs": [],
      "stateMutability": "nonpayable",
      "type": "function"
    },
    {
      "inputs": [
        {
          "internalType": "uint256",
          "name": "_taskId",
          "type": "uint256"
        },
        {
          "internalType": "address",
          "name": "_solver",
          "type": "address"
        }
      ],
      "name": "releaseBounty",
      "outputs": [],
      "stateMutability": "nonpayable",
      "type": "function"
    },
    {
      "inputs": [
        {
          "internalType": "uint256",
          "name": "_taskId",
          "type": "uint256"
        },
        {
          "internalType": "string",
          "name": "_solutionHash",
          "type": "string"
        }
      ],
      "name": "submitSolution",
      "outputs": [],
      "stateMutability": "nonpayable",
      "type": "function"
    },
    {
      "inputs": [
        {
          "internalType": "uint256",
          "name": "",
          "type": "uint256"
        }
      ],
      "name": "tasks",
      "outputs": [
        {
          "internalType": "address",
          "name": "creator",
          "type": "address"
        },
        {
          "internalType": "string",
          "name": "description",
          "type": "string"
        },
        {
          "internalType": "uint256",
          "name": "amount",
          "type": "uint256"
        },
        {
          "internalType": "address",
          "name": "token",
          "type": "address"
        },
        {
          "internalType": "bool",
          "name": "active",
          "type": "bool"
        },
        {
          "internalType": "uint256",
          "name": "timestamp",
          "type": "uint256"
        }
      ],
      "stateMutability": "view",
      "type": "function"
    }
  ],
  "devdoc": {
    "kind": "dev",
    "methods": {},
    "version": 1
  },
  "evm": {
    "assembly": "    /* \"BountyBoard.sol\":264:2558  contract BountyBoard {... */\n  mstore(0x40, 0x80)\n  callvalue\n  dup1\n  iszero\n  tag_1\n  jumpi\n  revert(0x00, 0x00)\ntag_1:\n  pop\n  dataSize(sub_0)\n  dup1\n  dataOffset(sub_0)\n  0x00\n  codecopy\n  0x00\n  return\nstop\n\nsub_0: assembly {\n        /* \"BountyBoard.sol\":264:2558  contract BountyBoard {... */\n      mstore(0x40, 0x80)\n      callvalue\n      dup1\n      iszero\n      tag_1\n      jumpi\n      revert(0x00, 0x00)\n    tag_1:\n      pop\n      jumpi(tag_2, lt(calldatasize, 0x04))\n      shr(0xe0, calldataload(0x00))\n      dup1\n      0x1070c205\n      eq\n      tag_3\n      jumpi\n      dup1\n      0x598bf048\n      eq\n      tag_4\n      jumpi\n      dup1\n      0x7c2e2cf5\n      eq\n      tag_5\n      jumpi\n      dup1\n      0x8d977672\n      eq\n      tag_6\n      jumpi\n      dup1\n      0xd3b5c016\n      eq\n      tag_7\n      jumpi\n      dup1\n      0xfdc3d8d7\n      eq\n      tag_8\n      jumpi\n    tag_2:\n      revert(0x00, 0x00)\n        /* \"BountyBoard.sol\":1703:2080  function releaseBounty(uint256 _taskId, address _solver) external {... */\n    tag_3:\n      tag_9\n      0x04\n      dup1\n      calldatasize\n      sub\n      dup2\n      add\n      swap1\n      tag_10\n      swap2\n      swap1\n      tag_11\n      jump\t// in\n    tag_10:\n      tag_12\n      jump\t// in\n    tag_9:\n      stop\n        /* \"BountyBoard.sol\":2086:2556  function reclaimBounty(uint256 _taskId) external {... */\n    tag_4:\n      tag_13\n      0x04\n      dup1\n      calldatasize\n      sub\n      dup2\n      add\n      swap1\n      tag_14\n      swap2\n      swap1\n      tag_15\n      jump\t// in\n    tag_14:\n      tag_16\n      jump\t// in\n    tag_13:\n      stop\n        /* \"BountyBoard.sol\":918:1476  function postTask(address _token, uint256 _amount, string calldata _description) external {... */\n    tag_5:\n      tag_17\n      0x04\n      dup1\n      calldatasize\n      sub\n      dup2\n      add\n      swap1\n      tag_18\n      swap2\n      swap1\n      tag_19\n      jump\t// in\n    tag_18:\n      tag_20\n      jump\t// in\n    tag_17:\n      stop\n        /* \"BountyBoard.sol\":511:548  mapping(uint256 => Task) public tasks */\n    tag_6:\n      tag_21\n      0x04\n      dup1\n      calldatasize\n      sub\n      dup2\n      add\n      swap1\n      tag_22\n      swap2\n      swap1\n      tag_15\n      jump\t// in\n    tag_22:\n      tag_23\n      jump\t// in\n    tag_21:\n      mload(0x40)\n      tag_24\n      swap7\n      swap6\n      swap5\n      swap4\n      swap3\n      swap2\n      swap1\n      tag_25\n      jump\t// in\n    tag_24:\n      mload(0x40)\n      dup1\n      swap2\n      sub\n      swap1\n      return\n        /* \"BountyBoard.sol\":1482:1697  function submitSolution(uint256 _taskId, string calldata _solutionHash) external {... */\n    tag_7:\n      tag_26\n      0x04\n      dup1\n      calldatasize\n      sub\n      dup2\n      add\n      swap1\n      tag_27\n      swap2\n      swap1\n      tag_28\n      jump\t// in\n    tag_27:\n      tag_29\n      jump\t// in\n    tag_26:\n      stop\n        /* \"BountyBoard.sol\":480:505  uint256 public nextTaskId */\n    tag_8:\n      tag_30\n      tag_31\n      jump\t// in\n    tag_30:\n      mload(0x40)\n      tag_32\n      swap2\n      swap1\n      tag_33\n      jump\t// in\n    tag_32:\n      mload(0x40)\n      dup1\n      swap2\n      sub\n      swap1\n      return\n        /* \"BountyBoard.sol\":1703:2080  function releaseBounty(uint256 _taskId, address _solver) external {... */\n    tag_12:\n        /* \"BountyBoard.sol\":1779:1796  Task storage task */\n      0x00\n        /* \"BountyBoard.sol\":1799:1804  tasks */\n      0x01\n        /* \"BountyBoard.sol\":1799:1813  tasks[_taskId] */\n      0x00\n        /* \"BountyBoard.sol\":1805:1812  _taskId */\n      dup5\n        /* \"BountyBoard.sol\":1799:1813  tasks[_taskId] */\n      dup2\n      mstore\n      0x20\n      add\n      swap1\n      dup2\n      mstore\n      0x20\n      add\n      0x00\n      keccak256\n        /* \"BountyBoard.sol\":1779:1813  Task storage task = tasks[_taskId] */\n      swap1\n      pop\n        /* \"BountyBoard.sol\":1845:1849  task */\n      dup1\n        /* \"BountyBoard.sol\":1845:1857  task.creator */\n      0x00\n      add\n      0x00\n      swap1\n      sload\n      swap1\n      0x0100\n      exp\n      swap1\n      div\n      0xffffffffffffffffffffffffffffffffffffffff\n      and\n        /* \"BountyBoard.sol\":1831:1857  msg.sender == task.creator */\n      0xffffffffffffffffffffffffffffffffffffffff\n      and\n        /* \"BountyBoard.sol\":1831:1841  msg.sender */\n      caller\n        /* \"BountyBoard.sol\":1831:1857  msg.sender == task.creator */\n      0xffffffffffffffffffffffffffffffffffffffff\n      and\n      eq\n        /* \"BountyBoard.sol\":1823:1874  require(msg.sender == task.creator, \"Only creator\") */\n      tag_35\n      jumpi\n      mload(0x40)\n      0x08c379a000000000000000000000000000000000000000000000000000000000\n      dup2\n      mstore\n      0x04\n      add\n      tag_36\n      swap1\n      tag_37\n      jump\t// in\n    tag_36:\n      mload(0x40)\n      dup1\n      swap2\n      sub\n      swap1\n      revert\n    tag_35:\n        /* \"BountyBoard.sol\":1892:1896  task */\n      dup1\n        /* \"BountyBoard.sol\":1892:1903  task.active */\n      0x03\n      add\n      0x14\n      swap1\n      sload\n      swap1\n      0x0100\n      exp\n      swap1\n      div\n      0xff\n      and\n        /* \"BountyBoard.sol\":1884:1923  require(task.active, \"Task not active\") */\n      tag_38\n      jumpi\n      mload(0x40)\n      0x08c379a000000000000000000000000000000000000000000000000000000000\n      dup2\n      mstore\n      0x04\n      add\n      tag_39\n      swap1\n      tag_40\n      jump\t// in\n    tag_39:\n      mload(0x40)\n      dup1\n      swap2\n      sub\n      swap1\n      revert\n    tag_38:\n        /* \"BountyBoard.sol\":1948:1953  false */\n      0x00\n        /* \"BountyBoard.sol\":1934:1938  task */\n      dup2\n        /* \"BountyBoard.sol\":1934:1945  task.active */\n      0x03\n      add\n      0x14\n        /* \"BountyBoard.sol\":1934:1953  task.active = false */\n      0x0100\n      exp\n      dup2\n      sload\n      dup2\n      0xff\n      mul\n      not\n      and\n      swap1\n      dup4\n      iszero\n      iszero\n      mul\n      or\n      swap1\n      sstore\n      pop\n        /* \"BountyBoard.sol\":1970:1974  task */\n      dup1\n        /* \"BountyBoard.sol\":1970:1980  task.token */\n      0x03\n      add\n      0x00\n      swap1\n      sload\n      swap1\n      0x0100\n      exp\n      swap1\n      div\n      0xffffffffffffffffffffffffffffffffffffffff\n      and\n        /* \"BountyBoard.sol\":1963:1990  IERC20(task.token).transfer */\n      0xffffffffffffffffffffffffffffffffffffffff\n      and\n      0xa9059cbb\n        /* \"BountyBoard.sol\":1991:1998  _solver */\n      dup4\n        /* \"BountyBoard.sol\":2000:2004  task */\n      dup4\n        /* \"BountyBoard.sol\":2000:2011  task.amount */\n      0x02\n      add\n      sload\n        /* \"BountyBoard.sol\":1963:2012  IERC20(task.token).transfer(_solver, task.amount) */\n      mload(0x40)\n      dup4\n      0xffffffff\n      and\n      0xe0\n      shl\n      dup2\n      mstore\n      0x04\n      add\n      tag_41\n      swap3\n      swap2\n      swap1\n      tag_42\n      jump\t// in\n    tag_41:\n      0x20\n      mload(0x40)\n      dup1\n      dup4\n      sub\n      dup2\n      0x00\n      dup8\n      gas\n      call\n      iszero\n      dup1\n      iszero\n      tag_44\n      jumpi\n      returndatacopy(0x00, 0x00, returndatasize)\n      revert(0x00, returndatasize)\n    tag_44:\n      pop\n      pop\n      pop\n      pop\n      mload(0x40)\n      returndatasize\n      not(0x1f)\n      0x1f\n      dup3\n      add\n      and\n      dup3\n      add\n      dup1\n      0x40\n      mstore\n      pop\n      dup2\n      add\n      swap1\n      tag_45\n      swap2\n      swap1\n      tag_46\n      jump\t// in\n    tag_45:\n      pop\n        /* \"BountyBoard.sol\":2052:2059  _solver */\n      dup2\n        /* \"BountyBoard.sol\":2028:2073  BountyReleased(_taskId, _solver, task.amount) */\n      0xffffffffffffffffffffffffffffffffffffffff\n      and\n        /* \"BountyBoard.sol\":2043:2050  _taskId */\n      dup4\n        /* \"BountyBoard.sol\":2028:2073  BountyReleased(_taskId, _solver, task.amount) */\n      0x94407969cf60f998494a152d3513fb23ce8cae640c40da2135ccb07d8bfaaa43\n        /* \"BountyBoard.sol\":2061:2065  task */\n      dup4\n        /* \"BountyBoard.sol\":2061:2072  task.amount */\n      0x02\n      add\n      sload\n        /* \"BountyBoard.sol\":2028:2073  BountyReleased(_taskId, _solver, task.amount) */\n      mload(0x40)\n      tag_47\n      swap2\n      swap1\n      tag_33\n      jump\t// in\n    tag_47:\n      mload(0x40)\n      dup1\n      swap2\n      sub\n      swap1\n      log3\n        /* \"BountyBoard.sol\":1769:2080  {... */\n      pop\n        /* \"BountyBoard.sol\":1703:2080  function releaseBounty(uint256 _taskId, address _solver) external {... */\n      pop\n      pop\n      jump\t// out\n        /* \"BountyBoard.sol\":2086:2556  function reclaimBounty(uint256 _taskId) external {... */\n    tag_16:\n        /* \"BountyBoard.sol\":2145:2162  Task storage task */\n      0x00\n        /* \"BountyBoard.sol\":2165:2170  tasks */\n      0x01\n        /* \"BountyBoard.sol\":2165:2179  tasks[_taskId] */\n      0x00\n        /* \"BountyBoard.sol\":2171:2178  _taskId */\n      dup4\n        /* \"BountyBoard.sol\":2165:2179  tasks[_taskId] */\n      dup2\n      mstore\n      0x20\n      add\n      swap1\n      dup2\n      mstore\n      0x20\n      add\n      0x00\n      keccak256\n        /* \"BountyBoard.sol\":2145:2179  Task storage task = tasks[_taskId] */\n      swap1\n      pop\n        /* \"BountyBoard.sol\":2211:2215  task */\n      dup1\n        /* \"BountyBoard.sol\":2211:2223  task.creator */\n      0x00\n      add\n      0x00\n      swap1\n      sload\n      swap1\n      0x0100\n      exp\n      swap1\n      div\n      0xffffffffffffffffffffffffffffffffffffffff\n      and\n        /* \"BountyBoard.sol\":2197:2223  msg.sender == task.creator */\n      0xffffffffffffffffffffffffffffffffffffffff\n      and\n        /* \"BountyBoard.sol\":2197:2207  msg.sender */\n      caller\n        /* \"BountyBoard.sol\":2197:2223  msg.sender == task.creator */\n      0xffffffffffffffffffffffffffffffffffffffff\n      and\n      eq\n        /* \"BountyBoard.sol\":2189:2240  require(msg.sender == task.creator, \"Only creator\") */\n      tag_49\n      jumpi\n      mload(0x40)\n      0x08c379a000000000000000000000000000000000000000000000000000000000\n      dup2\n      mstore\n      0x04\n      add\n      tag_50\n      swap1\n      tag_37\n      jump\t// in\n    tag_50:\n      mload(0x40)\n      dup1\n      swap2\n      sub\n      swap1\n      revert\n    tag_49:\n        /* \"BountyBoard.sol\":2258:2262  task */\n      dup1\n        /* \"BountyBoard.sol\":2258:2269  task.active */\n      0x03\n      add\n      0x14\n      swap1\n      sload\n      swap1\n      0x0100\n      exp\n      swap1\n      div\n      0xff\n      and\n        /* \"BountyBoard.sol\":2250:2289  require(task.active, \"Task not active\") */\n      tag_51\n      jumpi\n      mload(0x40)\n      0x08c379a000000000000000000000000000000000000000000000000000000000\n      dup2\n      mstore\n      0x04\n      add\n      tag_52\n      swap1\n      tag_40\n      jump\t// in\n    tag_52:\n      mload(0x40)\n      dup1\n      swap2\n      sub\n      swap1\n      revert\n    tag_51:\n        /* \"BountyBoard.sol\":2376:2382  7 days */\n      0x093a80\n        /* \"BountyBoard.sol\":2359:2363  task */\n      dup2\n        /* \"BountyBoard.sol\":2359:2373  task.timestamp */\n      0x04\n      add\n      sload\n        /* \"BountyBoard.sol\":2359:2382  task.timestamp + 7 days */\n      tag_53\n      swap2\n      swap1\n      tag_54\n      jump\t// in\n    tag_53:\n        /* \"BountyBoard.sol\":2341:2356  block.timestamp */\n      timestamp\n        /* \"BountyBoard.sol\":2341:2382  block.timestamp > task.timestamp + 7 days */\n      gt\n        /* \"BountyBoard.sol\":2333:2402  require(block.timestamp > task.timestamp + 7 days, \"Timelock active\") */\n      tag_55\n      jumpi\n      mload(0x40)\n      0x08c379a000000000000000000000000000000000000000000000000000000000\n      dup2\n      mstore\n      0x04\n      add\n      tag_56\n      swap1\n      tag_57\n      jump\t// in\n    tag_56:\n      mload(0x40)\n      dup1\n      swap2\n      sub\n      swap1\n      revert\n    tag_55:\n        /* \"BountyBoard.sol\":2427:2432  false */\n      0x00\n        /* \"BountyBoard.sol\":2413:2417  task */\n      dup2\n        /* \"BountyBoard.sol\":2413:2424  task.active */\n      0x03\n      add\n      0x14\n        /* \"BountyBoard.sol\":2413:2432  task.active = false */\n      0x0100\n      exp\n      dup2\n      sload\n      dup2\n      0xff\n      mul\n      not\n      and\n      swap1\n      dup4\n      iszero\n      iszero\n      mul\n      or\n      swap1\n      sstore\n      pop\n        /* \"BountyBoard.sol\":2449:2453  task */\n      dup1\n        /* \"BountyBoard.sol\":2449:2459  task.token */\n      0x03\n      add\n      0x00\n      swap1\n      sload\n      swap1\n      0x0100\n      exp\n      swap1\n      div\n      0xffffffffffffffffffffffffffffffffffffffff\n      and\n        /* \"BountyBoard.sol\":2442:2469  IERC20(task.token).transfer */\n      0xffffffffffffffffffffffffffffffffffffffff\n      and\n      0xa9059cbb\n        /* \"BountyBoard.sol\":2470:2474  task */\n      dup3\n        /* \"BountyBoard.sol\":2470:2482  task.creator */\n      0x00\n      add\n      0x00\n      swap1\n      sload\n      swap1\n      0x0100\n      exp\n      swap1\n      div\n      0xffffffffffffffffffffffffffffffffffffffff\n      and\n        /* \"BountyBoard.sol\":2484:2488  task */\n      dup4\n        /* \"BountyBoard.sol\":2484:2495  task.amount */\n      0x02\n      add\n      sload\n        /* \"BountyBoard.sol\":2442:2496  IERC20(task.token).transfer(task.creator, task.amount) */\n      mload(0x40)\n      dup4\n      0xffffffff\n      and\n      0xe0\n      shl\n      dup2\n      mstore\n      0x04\n      add\n      tag_58\n      swap3\n      swap2\n      swap1\n      tag_42\n      jump\t// in\n    tag_58:\n      0x20\n      mload(0x40)\n      dup1\n      dup4\n      sub\n      dup2\n      0x00\n      dup8\n      gas\n      call\n      iszero\n      dup1\n      iszero\n      tag_60\n      jumpi\n      returndatacopy(0x00, 0x00, returndatasize)\n      revert(0x00, returndatasize)\n    tag_60:\n      pop\n      pop\n      pop\n      pop\n      mload(0x40)\n      returndatasize\n      not(0x1f)\n      0x1f\n      dup3\n      add\n      and\n      dup3\n      add\n      dup1\n      0x40\n      mstore\n      pop\n      dup2\n      add\n      swap1\n      tag_61\n      swap2\n      swap1\n      tag_46\n      jump\t// in\n    tag_61:\n      pop\n        /* \"BountyBoard.sol\":2528:2535  _taskId */\n      dup2\n        /* \"BountyBoard.sol\":2512:2549  BountyReclaimed(_taskId, task.amount) */\n      0xae56392eb9559d3ab3e0e52db0fb1720db8d4771acf5138c09c426ee15c3cdad\n        /* \"BountyBoard.sol\":2537:2541  task */\n      dup3\n        /* \"BountyBoard.sol\":2537:2548  task.amount */\n      0x02\n      add\n      sload\n        /* \"BountyBoard.sol\":2512:2549  BountyReclaimed(_taskId, task.amount) */\n      mload(0x40)\n      tag_62\n      swap2\n      swap1\n      tag_33\n      jump\t// in\n    tag_62:\n      mload(0x40)\n      dup1\n      swap2\n      sub\n      swap1\n      log2\n        /* \"BountyBoard.sol\":2135:2556  {... */\n      pop\n        /* \"BountyBoard.sol\":2086:2556  function reclaimBounty(uint256 _taskId) external {... */\n      pop\n      jump\t// out\n        /* \"BountyBoard.sol\":918:1476  function postTask(address _token, uint256 _amount, string calldata _description) external {... */\n    tag_20:\n        /* \"BountyBoard.sol\":1036:1037  0 */\n      0x00\n        /* \"BountyBoard.sol\":1026:1033  _amount */\n      dup4\n        /* \"BountyBoard.sol\":1026:1037  _amount > 0 */\n      gt\n        /* \"BountyBoard.sol\":1018:1060  require(_amount > 0, \"Amount must be > 0\") */\n      tag_64\n      jumpi\n      mload(0x40)\n      0x08c379a000000000000000000000000000000000000000000000000000000000\n      dup2\n      mstore\n      0x04\n      add\n      tag_65\n      swap1\n      tag_66\n      jump\t// in\n    tag_65:\n      mload(0x40)\n      dup1\n      swap2\n      sub\n      swap1\n      revert\n    tag_64:\n        /* \"BountyBoard.sol\":1077:1083  _token */\n      dup4\n        /* \"BountyBoard.sol\":1070:1097  IERC20(_token).transferFrom */\n      0xffffffffffffffffffffffffffffffffffffffff\n      and\n      0x23b872dd\n        /* \"BountyBoard.sol\":1098:1108  msg.sender */\n      caller\n        /* \"BountyBoard.sol\":1118:1122  this */\n      address\n        /* \"BountyBoard.sol\":1125:1132  _amount */\n      dup7\n        /* \"BountyBoard.sol\":1070:1133  IERC20(_token).transferFrom(msg.sender, address(this), _amount) */\n      mload(0x40)\n      dup5\n      0xffffffff\n      and\n      0xe0\n      shl\n      dup2\n      mstore\n      0x04\n      add\n      tag_67\n      swap4\n      swap3\n      swap2\n      swap1\n      tag_68\n      jump\t// in\n    tag_67:\n      0x20\n      mload(0x40)\n      dup1\n      dup4\n      sub\n      dup2\n      0x00\n      dup8\n      gas\n      call\n      iszero\n      dup1\n      iszero\n      tag_70\n      jumpi\n      returndatacopy(0x00, 0x00, returndatasize)\n      revert(0x00, returndatasize)\n    tag_70:\n      pop\n      pop\n      pop\n      pop\n      mload(0x40)\n      returndatasize\n      not(0x1f)\n      0x1f\n      dup3\n      add\n      and\n      dup3\n      add\n      dup1\n      0x40\n      mstore\n      pop\n      dup2\n      add\n      swap1\n      tag_71\n      swap2\n      swap1\n      tag_46\n      jump\t// in\n    tag_71:\n      pop\n        /* \"BountyBoard.sol\":1164:1374  Task({... */\n      mload(0x40)\n      dup1\n      0xc0\n      add\n      0x40\n      mstore\n      dup1\n        /* \"BountyBoard.sol\":1192:1202  msg.sender */\n      caller\n        /* \"BountyBoard.sol\":1164:1374  Task({... */\n      0xffffffffffffffffffffffffffffffffffffffff\n      and\n      dup2\n      mstore\n      0x20\n      add\n        /* \"BountyBoard.sol\":1229:1241  _description */\n      dup4\n      dup4\n        /* \"BountyBoard.sol\":1164:1374  Task({... */\n      dup1\n      dup1\n      0x1f\n      add\n      0x20\n      dup1\n      swap2\n      div\n      mul\n      0x20\n      add\n      mload(0x40)\n      swap1\n      dup2\n      add\n      0x40\n      mstore\n      dup1\n      swap4\n      swap3\n      swap2\n      swap1\n      dup2\n      dup2\n      mstore\n      0x20\n      add\n      dup4\n      dup4\n      dup1\n      dup3\n      dup5\n      calldatacopy\n      0x00\n      dup2\n      dup5\n      add\n      mstore\n      not(0x1f)\n      0x1f\n      dup3\n      add\n      and\n      swap1\n      pop\n      dup1\n      dup4\n      add\n      swap3\n      pop\n      pop\n      pop\n      pop\n      pop\n      pop\n      pop\n      dup2\n      mstore\n      0x20\n      add\n        /* \"BountyBoard.sol\":1263:1270  _amount */\n      dup5\n        /* \"BountyBoard.sol\":1164:1374  Task({... */\n      dup2\n      mstore\n      0x20\n      add\n        /* \"BountyBoard.sol\":1291:1297  _token */\n      dup6\n        /* \"BountyBoard.sol\":1164:1374  Task({... */\n      0xffffffffffffffffffffffffffffffffffffffff\n      and\n      dup2\n      mstore\n      0x20\n      add\n        /* \"BountyBoard.sol\":1319:1323  true */\n      0x01\n        /* \"BountyBoard.sol\":1164:1374  Task({... */\n      iszero\n      iszero\n      dup2\n      mstore\n      0x20\n      add\n        /* \"BountyBoard.sol\":1348:1363  block.timestamp */\n      timestamp\n        /* \"BountyBoard.sol\":1164:1374  Task({... */\n      dup2\n      mstore\n      pop\n        /* \"BountyBoard.sol\":1144:1149  tasks */\n      0x01\n        /* \"BountyBoard.sol\":1144:1161  tasks[nextTaskId] */\n      0x00\n        /* \"BountyBoard.sol\":1150:1160  nextTaskId */\n      sload(0x00)\n        /* \"BountyBoard.sol\":1144:1161  tasks[nextTaskId] */\n      dup2\n      mstore\n      0x20\n      add\n      swap1\n      dup2\n      mstore\n      0x20\n      add\n      0x00\n      keccak256\n        /* \"BountyBoard.sol\":1144:1374  tasks[nextTaskId] = Task({... */\n      0x00\n      dup3\n      add\n      mload\n      dup2\n      0x00\n      add\n      exp(0x0100, 0x00)\n      dup2\n      sload\n      dup2\n      0xffffffffffffffffffffffffffffffffffffffff\n      mul\n      not\n      and\n      swap1\n      dup4\n      0xffffffffffffffffffffffffffffffffffffffff\n      and\n      mul\n      or\n      swap1\n      sstore\n      pop\n      0x20\n      dup3\n      add\n      mload\n      dup2\n      0x01\n      add\n      swap1\n      dup2\n      tag_72\n      swap2\n      swap1\n      tag_73\n      jump\t// in\n    tag_72:\n      pop\n      0x40\n      dup3\n      add\n      mload\n      dup2\n      0x02\n      add\n      sstore\n      0x60\n      dup3\n      add\n      mload\n      dup2\n      0x03\n      add\n      exp(0x0100, 0x00)\n      dup2\n      sload\n      dup2\n      0xffffffffffffffffffffffffffffffffffffffff\n      mul\n      not\n      and\n      swap1\n      dup4\n      0xffffffffffffffffffffffffffffffffffffffff\n      and\n      mul\n      or\n      swap1\n      sstore\n      pop\n      0x80\n      dup3\n      add\n      mload\n      dup2\n      0x03\n      add\n      exp(0x0100, 0x14)\n      dup2\n      sload\n      dup2\n      0xff\n      mul\n      not\n      and\n      swap1\n      dup4\n      iszero\n      iszero\n      mul\n      or\n      swap1\n      sstore\n      pop\n      0xa0\n      dup3\n      add\n      mload\n      dup2\n      0x04\n      add\n      sstore\n      swap1\n      pop\n      pop\n        /* \"BountyBoard.sol\":1413:1423  msg.sender */\n      caller\n        /* \"BountyBoard.sol\":1390:1447  TaskPosted(nextTaskId, msg.sender, _amount, _description) */\n      0xffffffffffffffffffffffffffffffffffffffff\n      and\n        /* \"BountyBoard.sol\":1401:1411  nextTaskId */\n      sload(0x00)\n        /* \"BountyBoard.sol\":1390:1447  TaskPosted(nextTaskId, msg.sender, _amount, _description) */\n      0x05fddf931b4d1e3b95f2b6fb12ab475fe9555ce60fd2bfe66b84060f2dc22a2e\n        /* \"BountyBoard.sol\":1425:1432  _amount */\n      dup6\n        /* \"BountyBoard.sol\":1434:1446  _description */\n      dup6\n      dup6\n        /* \"BountyBoard.sol\":1390:1447  TaskPosted(nextTaskId, msg.sender, _amount, _description) */\n      mload(0x40)\n      tag_74\n      swap4\n      swap3\n      swap2\n      swap1\n      tag_75\n      jump\t// in\n    tag_74:\n      mload(0x40)\n      dup1\n      swap2\n      sub\n      swap1\n      log3\n        /* \"BountyBoard.sol\":1457:1467  nextTaskId */\n      0x00\n      0x00\n        /* \"BountyBoard.sol\":1457:1469  nextTaskId++ */\n      dup2\n      sload\n      dup1\n      swap3\n      swap2\n      swap1\n      tag_76\n      swap1\n      tag_77\n      jump\t// in\n    tag_76:\n      swap2\n      swap1\n      pop\n      sstore\n      pop\n        /* \"BountyBoard.sol\":918:1476  function postTask(address _token, uint256 _amount, string calldata _description) external {... */\n      pop\n      pop\n      pop\n      pop\n      jump\t// out\n        /* \"BountyBoard.sol\":511:548  mapping(uint256 => Task) public tasks */\n    tag_23:\n      mstore(0x20, 0x01)\n      dup1\n      0x00\n      mstore\n      keccak256(0x00, 0x40)\n      0x00\n      swap2\n      pop\n      swap1\n      pop\n      dup1\n      0x00\n      add\n      0x00\n      swap1\n      sload\n      swap1\n      0x0100\n      exp\n      swap1\n      div\n      0xffffffffffffffffffffffffffffffffffffffff\n      and\n      swap1\n      dup1\n      0x01\n      add\n      dup1\n      sload\n      tag_78\n      swap1\n      tag_79\n      jump\t// in\n    tag_78:\n      dup1\n      0x1f\n      add\n      0x20\n      dup1\n      swap2\n      div\n      mul\n      0x20\n      add\n      mload(0x40)\n      swap1\n      dup2\n      add\n      0x40\n      mstore\n      dup1\n      swap3\n      swap2\n      swap1\n      dup2\n      dup2\n      mstore\n      0x20\n      add\n      dup3\n      dup1\n      sload\n      tag_80\n      swap1\n      tag_79\n      jump\t// in\n    tag_80:\n      dup1\n      iszero\n      tag_81\n      jumpi\n      dup1\n      0x1f\n      lt\n      tag_82\n      jumpi\n      0x0100\n      dup1\n      dup4\n      sload\n      div\n      mul\n      dup4\n      mstore\n      swap2\n      0x20\n      add\n      swap2\n      jump(tag_81)\n    tag_82:\n      dup3\n      add\n      swap2\n      swap1\n      0x00\n      mstore\n      keccak256(0x00, 0x20)\n      swap1\n    tag_83:\n      dup2\n      sload\n      dup2\n      mstore\n      swap1\n      0x01\n      add\n      swap1\n      0x20\n      add\n      dup1\n      dup4\n      gt\n      tag_83\n      jumpi\n      dup3\n      swap1\n      sub\n      0x1f\n      and\n      dup3\n      add\n      swap2\n    tag_81:\n      pop\n      pop\n      pop\n      pop\n      pop\n      swap1\n      dup1\n      0x02\n      add\n      sload\n      swap1\n      dup1\n      0x03\n      add\n      0x00\n      swap1\n      sload\n      swap1\n      0x0100\n      exp\n      swap1\n      div\n      0xffffffffffffffffffffffffffffffffffffffff\n      and\n      swap1\n      dup1\n      0x03\n      add\n      0x14\n      swap1\n      sload\n      swap1\n      0x0100\n      exp\n      swap1\n      div\n      0xff\n      and\n      swap1\n      dup1\n      0x04\n      add\n      sload\n      swap1\n      pop\n      dup7\n      jump\t// out\n        /* \"BountyBoard.sol\":1482:1697  function submitSolution(uint256 _taskId, string calldata _solutionHash) external {... */\n    tag_29:\n        /* \"BountyBoard.sol\":1581:1586  tasks */\n      0x01\n        /* \"BountyBoard.sol\":1581:1595  tasks[_taskId] */\n      0x00\n        /* \"BountyBoard.sol\":1587:1594  _taskId */\n      dup5\n        /* \"BountyBoard.sol\":1581:1595  tasks[_taskId] */\n      dup2\n      mstore\n      0x20\n      add\n      swap1\n      dup2\n      mstore\n      0x20\n      add\n      0x00\n      keccak256\n        /* \"BountyBoard.sol\":1581:1602  tasks[_taskId].active */\n      0x03\n      add\n      0x14\n      swap1\n      sload\n      swap1\n      0x0100\n      exp\n      swap1\n      div\n      0xff\n      and\n        /* \"BountyBoard.sol\":1573:1622  require(tasks[_taskId].active, \"Task not active\") */\n      tag_85\n      jumpi\n      mload(0x40)\n      0x08c379a000000000000000000000000000000000000000000000000000000000\n      dup2\n      mstore\n      0x04\n      add\n      tag_86\n      swap1\n      tag_40\n      jump\t// in\n    tag_86:\n      mload(0x40)\n      dup1\n      swap2\n      sub\n      swap1\n      revert\n    tag_85:\n        /* \"BountyBoard.sol\":1664:1674  msg.sender */\n      caller\n        /* \"BountyBoard.sol\":1637:1690  SolutionSubmitted(_taskId, msg.sender, _solutionHash) */\n      0xffffffffffffffffffffffffffffffffffffffff\n      and\n        /* \"BountyBoard.sol\":1655:1662  _taskId */\n      dup4\n        /* \"BountyBoard.sol\":1637:1690  SolutionSubmitted(_taskId, msg.sender, _solutionHash) */\n      0xa90ae9720245855cd0178118b70cc1ee497003d06d996ee5c304a19e5b25d915\n        /* \"BountyBoard.sol\":1676:1689  _solutionHash */\n      dup5\n      dup5\n        /* \"BountyBoard.sol\":1637:1690  SolutionSubmitted(_taskId, msg.sender, _solutionHash) */\n      mload(0x40)\n      tag_87\n      swap3\n      swap2\n      swap1\n      tag_88\n      jump\t// in\n    tag_87:\n      mload(0x40)\n      dup1\n      swap2\n      sub\n      swap1\n      log3\n        /* \"BountyBoard.sol\":1482:1697  function submitSolution(uint256 _taskId, string calldata _solutionHash) external {... */\n      pop\n      pop\n      pop\n      jump\t// out\n        /* \"BountyBoard.sol\":480:505  uint256 public nextTaskId */\n    tag_31:\n      sload(0x00)\n      dup2\n      jump\t// out\n        /* \"#utility.yul\":88:205   */\n    tag_90:\n        /* \"#utility.yul\":197:198   */\n      0x00\n        /* \"#utility.yul\":194:195   */\n      0x00\n        /* \"#utility.yul\":187:199   */\n      revert\n        /* \"#utility.yul\":211:328   */\n    tag_91:\n        /* \"#utility.yul\":320:321   */\n      0x00\n        /* \"#utility.yul\":317:318   */\n      0x00\n        /* \"#utility.yul\":310:322   */\n      revert\n        /* \"#utility.yul\":334:411   */\n    tag_92:\n        /* \"#utility.yul\":371:378   */\n      0x00\n        /* \"#utility.yul\":400:405   */\n      dup2\n        /* \"#utility.yul\":389:405   */\n      swap1\n      pop\n        /* \"#utility.yul\":334:411   */\n      swap2\n      swap1\n      pop\n      jump\t// out\n        /* \"#utility.yul\":417:539   */\n    tag_93:\n        /* \"#utility.yul\":490:514   */\n      tag_148\n        /* \"#utility.yul\":508:513   */\n      dup2\n        /* \"#utility.yul\":490:514   */\n      tag_92\n      jump\t// in\n    tag_148:\n        /* \"#utility.yul\":483:488   */\n      dup2\n        /* \"#utility.yul\":480:515   */\n      eq\n        /* \"#utility.yul\":470:533   */\n      tag_149\n      jumpi\n        /* \"#utility.yul\":529:530   */\n      0x00\n        /* \"#utility.yul\":526:527   */\n      0x00\n        /* \"#utility.yul\":519:531   */\n      revert\n        /* \"#utility.yul\":470:533   */\n    tag_149:\n        /* \"#utility.yul\":417:539   */\n      pop\n      jump\t// out\n        /* \"#utility.yul\":545:684   */\n    tag_94:\n        /* \"#utility.yul\":591:596   */\n      0x00\n        /* \"#utility.yul\":629:635   */\n      dup2\n        /* \"#utility.yul\":616:636   */\n      calldataload\n        /* \"#utility.yul\":607:636   */\n      swap1\n      pop\n        /* \"#utility.yul\":645:678   */\n      tag_151\n        /* \"#utility.yul\":672:677   */\n      dup2\n        /* \"#utility.yul\":645:678   */\n      tag_93\n      jump\t// in\n    tag_151:\n        /* \"#utility.yul\":545:684   */\n      swap3\n      swap2\n      pop\n      pop\n      jump\t// out\n        /* \"#utility.yul\":690:816   */\n    tag_95:\n        /* \"#utility.yul\":727:734   */\n      0x00\n        /* \"#utility.yul\":767:809   */\n      0xffffffffffffffffffffffffffffffffffffffff\n        /* \"#utility.yul\":760:765   */\n      dup3\n        /* \"#utility.yul\":756:810   */\n      and\n        /* \"#utility.yul\":745:810   */\n      swap1\n      pop\n        /* \"#utility.yul\":690:816   */\n      swap2\n      swap1\n      pop\n      jump\t// out\n        /* \"#utility.yul\":822:918   */\n    tag_96:\n        /* \"#utility.yul\":859:866   */\n      0x00\n        /* \"#utility.yul\":888:912   */\n      tag_154\n        /* \"#utility.yul\":906:911   */\n      dup3\n        /* \"#utility.yul\":888:912   */\n      tag_95\n      jump\t// in\n    tag_154:\n        /* \"#utility.yul\":877:912   */\n      swap1\n      pop\n        /* \"#utility.yul\":822:918   */\n      swap2\n      swap1\n      pop\n      jump\t// out\n        /* \"#utility.yul\":924:1046   */\n    tag_97:\n        /* \"#utility.yul\":997:1021   */\n      tag_156\n        /* \"#utility.yul\":1015:1020   */\n      dup2\n        /* \"#utility.yul\":997:1021   */\n      tag_96\n      jump\t// in\n    tag_156:\n        /* \"#utility.yul\":990:995   */\n      dup2\n        /* \"#utility.yul\":987:1022   */\n      eq\n        /* \"#utility.yul\":977:1040   */\n      tag_157\n      jumpi\n        /* \"#utility.yul\":1036:1037   */\n      0x00\n        /* \"#utility.yul\":1033:1034   */\n      0x00\n        /* \"#utility.yul\":1026:1038   */\n      revert\n        /* \"#utility.yul\":977:1040   */\n    tag_157:\n        /* \"#utility.yul\":924:1046   */\n      pop\n      jump\t// out\n        /* \"#utility.yul\":1052:1191   */\n    tag_98:\n        /* \"#utility.yul\":1098:1103   */\n      0x00\n        /* \"#utility.yul\":1136:1142   */\n      dup2\n        /* \"#utility.yul\":1123:1143   */\n      calldataload\n        /* \"#utility.yul\":1114:1143   */\n      swap1\n      pop\n        /* \"#utility.yul\":1152:1185   */\n      tag_159\n        /* \"#utility.yul\":1179:1184   */\n      dup2\n        /* \"#utility.yul\":1152:1185   */\n      tag_97\n      jump\t// in\n    tag_159:\n        /* \"#utility.yul\":1052:1191   */\n      swap3\n      swap2\n      pop\n      pop\n      jump\t// out\n        /* \"#utility.yul\":1197:1671   */\n    tag_11:\n        /* \"#utility.yul\":1265:1271   */\n      0x00\n        /* \"#utility.yul\":1273:1279   */\n      0x00\n        /* \"#utility.yul\":1322:1324   */\n      0x40\n        /* \"#utility.yul\":1310:1319   */\n      dup4\n        /* \"#utility.yul\":1301:1308   */\n      dup6\n        /* \"#utility.yul\":1297:1320   */\n      sub\n        /* \"#utility.yul\":1293:1325   */\n      slt\n        /* \"#utility.yul\":1290:1409   */\n      iszero\n      tag_161\n      jumpi\n        /* \"#utility.yul\":1328:1407   */\n      tag_162\n      tag_90\n      jump\t// in\n    tag_162:\n        /* \"#utility.yul\":1290:1409   */\n    tag_161:\n        /* \"#utility.yul\":1448:1449   */\n      0x00\n        /* \"#utility.yul\":1473:1526   */\n      tag_163\n        /* \"#utility.yul\":1518:1525   */\n      dup6\n        /* \"#utility.yul\":1509:1515   */\n      dup3\n        /* \"#utility.yul\":1498:1507   */\n      dup7\n        /* \"#utility.yul\":1494:1516   */\n      add\n        /* \"#utility.yul\":1473:1526   */\n      tag_94\n      jump\t// in\n    tag_163:\n        /* \"#utility.yul\":1463:1526   */\n      swap3\n      pop\n        /* \"#utility.yul\":1419:1536   */\n      pop\n        /* \"#utility.yul\":1575:1577   */\n      0x20\n        /* \"#utility.yul\":1601:1654   */\n      tag_164\n        /* \"#utility.yul\":1646:1653   */\n      dup6\n        /* \"#utility.yul\":1637:1643   */\n      dup3\n        /* \"#utility.yul\":1626:1635   */\n      dup7\n        /* \"#utility.yul\":1622:1644   */\n      add\n        /* \"#utility.yul\":1601:1654   */\n      tag_98\n      jump\t// in\n    tag_164:\n        /* \"#utility.yul\":1591:1654   */\n      swap2\n      pop\n        /* \"#utility.yul\":1546:1664   */\n      pop\n        /* \"#utility.yul\":1197:1671   */\n      swap3\n      pop\n      swap3\n      swap1\n      pop\n      jump\t// out\n        /* \"#utility.yul\":1677:2006   */\n    tag_15:\n        /* \"#utility.yul\":1736:1742   */\n      0x00\n        /* \"#utility.yul\":1785:1787   */\n      0x20\n        /* \"#utility.yul\":1773:1782   */\n      dup3\n        /* \"#utility.yul\":1764:1771   */\n      dup5\n        /* \"#utility.yul\":1760:1783   */\n      sub\n        /* \"#utility.yul\":1756:1788   */\n      slt\n        /* \"#utility.yul\":1753:1872   */\n      iszero\n      tag_166\n      jumpi\n        /* \"#utility.yul\":1791:1870   */\n      tag_167\n      tag_90\n      jump\t// in\n    tag_167:\n        /* \"#utility.yul\":1753:1872   */\n    tag_166:\n        /* \"#utility.yul\":1911:1912   */\n      0x00\n        /* \"#utility.yul\":1936:1989   */\n      tag_168\n        /* \"#utility.yul\":1981:1988   */\n      dup5\n        /* \"#utility.yul\":1972:1978   */\n      dup3\n        /* \"#utility.yul\":1961:1970   */\n      dup6\n        /* \"#utility.yul\":1957:1979   */\n      add\n        /* \"#utility.yul\":1936:1989   */\n      tag_94\n      jump\t// in\n    tag_168:\n        /* \"#utility.yul\":1926:1989   */\n      swap2\n      pop\n        /* \"#utility.yul\":1882:1999   */\n      pop\n        /* \"#utility.yul\":1677:2006   */\n      swap3\n      swap2\n      pop\n      pop\n      jump\t// out\n        /* \"#utility.yul\":2012:2129   */\n    tag_99:\n        /* \"#utility.yul\":2121:2122   */\n      0x00\n        /* \"#utility.yul\":2118:2119   */\n      0x00\n        /* \"#utility.yul\":2111:2123   */\n      revert\n        /* \"#utility.yul\":2135:2252   */\n    tag_100:\n        /* \"#utility.yul\":2244:2245   */\n      0x00\n        /* \"#utility.yul\":2241:2242   */\n      0x00\n        /* \"#utility.yul\":2234:2246   */\n      revert\n        /* \"#utility.yul\":2258:2375   */\n    tag_101:\n        /* \"#utility.yul\":2367:2368   */\n      0x00\n        /* \"#utility.yul\":2364:2365   */\n      0x00\n        /* \"#utility.yul\":2357:2369   */\n      revert\n        /* \"#utility.yul\":2395:2948   */\n    tag_102:\n        /* \"#utility.yul\":2453:2461   */\n      0x00\n        /* \"#utility.yul\":2463:2469   */\n      0x00\n        /* \"#utility.yul\":2513:2516   */\n      dup4\n        /* \"#utility.yul\":2506:2510   */\n      0x1f\n        /* \"#utility.yul\":2498:2504   */\n      dup5\n        /* \"#utility.yul\":2494:2511   */\n      add\n        /* \"#utility.yul\":2490:2517   */\n      slt\n        /* \"#utility.yul\":2480:2602   */\n      tag_173\n      jumpi\n        /* \"#utility.yul\":2521:2600   */\n      tag_174\n      tag_99\n      jump\t// in\n    tag_174:\n        /* \"#utility.yul\":2480:2602   */\n    tag_173:\n        /* \"#utility.yul\":2634:2640   */\n      dup3\n        /* \"#utility.yul\":2621:2641   */\n      calldataload\n        /* \"#utility.yul\":2611:2641   */\n      swap1\n      pop\n        /* \"#utility.yul\":2664:2682   */\n      0xffffffffffffffff\n        /* \"#utility.yul\":2656:2662   */\n      dup2\n        /* \"#utility.yul\":2653:2683   */\n      gt\n        /* \"#utility.yul\":2650:2767   */\n      iszero\n      tag_175\n      jumpi\n        /* \"#utility.yul\":2686:2765   */\n      tag_176\n      tag_100\n      jump\t// in\n    tag_176:\n        /* \"#utility.yul\":2650:2767   */\n    tag_175:\n        /* \"#utility.yul\":2800:2804   */\n      0x20\n        /* \"#utility.yul\":2792:2798   */\n      dup4\n        /* \"#utility.yul\":2788:2805   */\n      add\n        /* \"#utility.yul\":2776:2805   */\n      swap2\n      pop\n        /* \"#utility.yul\":2854:2857   */\n      dup4\n        /* \"#utility.yul\":2846:2850   */\n      0x01\n        /* \"#utility.yul\":2838:2844   */\n      dup3\n        /* \"#utility.yul\":2834:2851   */\n      mul\n        /* \"#utility.yul\":2824:2832   */\n      dup4\n        /* \"#utility.yul\":2820:2852   */\n      add\n        /* \"#utility.yul\":2817:2858   */\n      gt\n        /* \"#utility.yul\":2814:2942   */\n      iszero\n      tag_177\n      jumpi\n        /* \"#utility.yul\":2861:2940   */\n      tag_178\n      tag_101\n      jump\t// in\n    tag_178:\n        /* \"#utility.yul\":2814:2942   */\n    tag_177:\n        /* \"#utility.yul\":2395:2948   */\n      swap3\n      pop\n      swap3\n      swap1\n      pop\n      jump\t// out\n        /* \"#utility.yul\":2954:3773   */\n    tag_19:\n        /* \"#utility.yul\":3043:3049   */\n      0x00\n        /* \"#utility.yul\":3051:3057   */\n      0x00\n        /* \"#utility.yul\":3059:3065   */\n      0x00\n        /* \"#utility.yul\":3067:3073   */\n      0x00\n        /* \"#utility.yul\":3116:3118   */\n      0x60\n        /* \"#utility.yul\":3104:3113   */\n      dup6\n        /* \"#utility.yul\":3095:3102   */\n      dup8\n        /* \"#utility.yul\":3091:3114   */\n      sub\n        /* \"#utility.yul\":3087:3119   */\n      slt\n        /* \"#utility.yul\":3084:3203   */\n      iszero\n      tag_180\n      jumpi\n        /* \"#utility.yul\":3122:3201   */\n      tag_181\n      tag_90\n      jump\t// in\n    tag_181:\n        /* \"#utility.yul\":3084:3203   */\n    tag_180:\n        /* \"#utility.yul\":3242:3243   */\n      0x00\n        /* \"#utility.yul\":3267:3320   */\n      tag_182\n        /* \"#utility.yul\":3312:3319   */\n      dup8\n        /* \"#utility.yul\":3303:3309   */\n      dup3\n        /* \"#utility.yul\":3292:3301   */\n      dup9\n        /* \"#utility.yul\":3288:3310   */\n      add\n        /* \"#utility.yul\":3267:3320   */\n      tag_98\n      jump\t// in\n    tag_182:\n        /* \"#utility.yul\":3257:3320   */\n      swap5\n      pop\n        /* \"#utility.yul\":3213:3330   */\n      pop\n        /* \"#utility.yul\":3369:3371   */\n      0x20\n        /* \"#utility.yul\":3395:3448   */\n      tag_183\n        /* \"#utility.yul\":3440:3447   */\n      dup8\n        /* \"#utility.yul\":3431:3437   */\n      dup3\n        /* \"#utility.yul\":3420:3429   */\n      dup9\n        /* \"#utility.yul\":3416:3438   */\n      add\n        /* \"#utility.yul\":3395:3448   */\n      tag_94\n      jump\t// in\n    tag_183:\n        /* \"#utility.yul\":3385:3448   */\n      swap4\n      pop\n        /* \"#utility.yul\":3340:3458   */\n      pop\n        /* \"#utility.yul\":3525:3527   */\n      0x40\n        /* \"#utility.yul\":3514:3523   */\n      dup6\n        /* \"#utility.yul\":3510:3528   */\n      add\n        /* \"#utility.yul\":3497:3529   */\n      calldataload\n        /* \"#utility.yul\":3556:3574   */\n      0xffffffffffffffff\n        /* \"#utility.yul\":3548:3554   */\n      dup2\n        /* \"#utility.yul\":3545:3575   */\n      gt\n        /* \"#utility.yul\":3542:3659   */\n      iszero\n      tag_184\n      jumpi\n        /* \"#utility.yul\":3578:3657   */\n      tag_185\n      tag_91\n      jump\t// in\n    tag_185:\n        /* \"#utility.yul\":3542:3659   */\n    tag_184:\n        /* \"#utility.yul\":3691:3756   */\n      tag_186\n        /* \"#utility.yul\":3748:3755   */\n      dup8\n        /* \"#utility.yul\":3739:3745   */\n      dup3\n        /* \"#utility.yul\":3728:3737   */\n      dup9\n        /* \"#utility.yul\":3724:3746   */\n      add\n        /* \"#utility.yul\":3691:3756   */\n      tag_102\n      jump\t// in\n    tag_186:\n        /* \"#utility.yul\":3673:3756   */\n      swap3\n      pop\n      swap3\n      pop\n        /* \"#utility.yul\":3468:3766   */\n      pop\n        /* \"#utility.yul\":2954:3773   */\n      swap3\n      swap6\n      swap2\n      swap5\n      pop\n      swap3\n      pop\n      jump\t// out\n        /* \"#utility.yul\":3779:3897   */\n    tag_103:\n        /* \"#utility.yul\":3866:3890   */\n      tag_188\n        /* \"#utility.yul\":3884:3889   */\n      dup2\n        /* \"#utility.yul\":3866:3890   */\n      tag_96\n      jump\t// in\n    tag_188:\n        /* \"#utility.yul\":3861:3864   */\n      dup3\n        /* \"#utility.yul\":3854:3891   */\n      mstore\n        /* \"#utility.yul\":3779:3897   */\n      pop\n      pop\n      jump\t// out\n        /* \"#utility.yul\":3903:4002   */\n    tag_104:\n        /* \"#utility.yul\":3955:3961   */\n      0x00\n        /* \"#utility.yul\":3989:3994   */\n      dup2\n        /* \"#utility.yul\":3983:3995   */\n      mload\n        /* \"#utility.yul\":3973:3995   */\n      swap1\n      pop\n        /* \"#utility.yul\":3903:4002   */\n      swap2\n      swap1\n      pop\n      jump\t// out\n        /* \"#utility.yul\":4008:4177   */\n    tag_105:\n        /* \"#utility.yul\":4092:4103   */\n      0x00\n        /* \"#utility.yul\":4126:4132   */\n      dup3\n        /* \"#utility.yul\":4121:4124   */\n      dup3\n        /* \"#utility.yul\":4114:4133   */\n      mstore\n        /* \"#utility.yul\":4166:4170   */\n      0x20\n        /* \"#utility.yul\":4161:4164   */\n      dup3\n        /* \"#utility.yul\":4157:4171   */\n      add\n        /* \"#utility.yul\":4142:4171   */\n      swap1\n      pop\n        /* \"#utility.yul\":4008:4177   */\n      swap3\n      swap2\n      pop\n      pop\n      jump\t// out\n        /* \"#utility.yul\":4183:4322   */\n    tag_106:\n        /* \"#utility.yul\":4272:4278   */\n      dup3\n        /* \"#utility.yul\":4267:4270   */\n      dup2\n        /* \"#utility.yul\":4262:4265   */\n      dup4\n        /* \"#utility.yul\":4256:4279   */\n      mcopy\n        /* \"#utility.yul\":4313:4314   */\n      0x00\n        /* \"#utility.yul\":4304:4310   */\n      dup4\n        /* \"#utility.yul\":4299:4302   */\n      dup4\n        /* \"#utility.yul\":4295:4311   */\n      add\n        /* \"#utility.yul\":4288:4315   */\n      mstore\n        /* \"#utility.yul\":4183:4322   */\n      pop\n      pop\n      pop\n      jump\t// out\n        /* \"#utility.yul\":4328:4430   */\n    tag_107:\n        /* \"#utility.yul\":4369:4375   */\n      0x00\n        /* \"#utility.yul\":4420:4422   */\n      0x1f\n        /* \"#utility.yul\":4416:4423   */\n      not\n        /* \"#utility.yul\":4411:4413   */\n      0x1f\n        /* \"#utility.yul\":4404:4409   */\n      dup4\n        /* \"#utility.yul\":4400:4414   */\n      add\n        /* \"#utility.yul\":4396:4424   */\n      and\n        /* \"#utility.yul\":4386:4424   */\n      swap1\n      pop\n        /* \"#utility.yul\":4328:4430   */\n      swap2\n      swap1\n      pop\n      jump\t// out\n        /* \"#utility.yul\":4436:4813   */\n    tag_108:\n        /* \"#utility.yul\":4524:4527   */\n      0x00\n        /* \"#utility.yul\":4552:4591   */\n      tag_194\n        /* \"#utility.yul\":4585:4590   */\n      dup3\n        /* \"#utility.yul\":4552:4591   */\n      tag_104\n      jump\t// in\n    tag_194:\n        /* \"#utility.yul\":4607:4678   */\n      tag_195\n        /* \"#utility.yul\":4671:4677   */\n      dup2\n        /* \"#utility.yul\":4666:4669   */\n      dup6\n        /* \"#utility.yul\":4607:4678   */\n      tag_105\n      jump\t// in\n    tag_195:\n        /* \"#utility.yul\":4600:4678   */\n      swap4\n      pop\n        /* \"#utility.yul\":4687:4752   */\n      tag_196\n        /* \"#utility.yul\":4745:4751   */\n      dup2\n        /* \"#utility.yul\":4740:4743   */\n      dup6\n        /* \"#utility.yul\":4733:4737   */\n      0x20\n        /* \"#utility.yul\":4726:4731   */\n      dup7\n        /* \"#utility.yul\":4722:4738   */\n      add\n        /* \"#utility.yul\":4687:4752   */\n      tag_106\n      jump\t// in\n    tag_196:\n        /* \"#utility.yul\":4777:4806   */\n      tag_197\n        /* \"#utility.yul\":4799:4805   */\n      dup2\n        /* \"#utility.yul\":4777:4806   */\n      tag_107\n      jump\t// in\n    tag_197:\n        /* \"#utility.yul\":4772:4775   */\n      dup5\n        /* \"#utility.yul\":4768:4807   */\n      add\n        /* \"#utility.yul\":4761:4807   */\n      swap2\n      pop\n        /* \"#utility.yul\":4528:4813   */\n      pop\n        /* \"#utility.yul\":4436:4813   */\n      swap3\n      swap2\n      pop\n      pop\n      jump\t// out\n        /* \"#utility.yul\":4819:4937   */\n    tag_109:\n        /* \"#utility.yul\":4906:4930   */\n      tag_199\n        /* \"#utility.yul\":4924:4929   */\n      dup2\n        /* \"#utility.yul\":4906:4930   */\n      tag_92\n      jump\t// in\n    tag_199:\n        /* \"#utility.yul\":4901:4904   */\n      dup3\n        /* \"#utility.yul\":4894:4931   */\n      mstore\n        /* \"#utility.yul\":4819:4937   */\n      pop\n      pop\n      jump\t// out\n        /* \"#utility.yul\":4943:5033   */\n    tag_110:\n        /* \"#utility.yul\":4977:4984   */\n      0x00\n        /* \"#utility.yul\":5020:5025   */\n      dup2\n        /* \"#utility.yul\":5013:5026   */\n      iszero\n        /* \"#utility.yul\":5006:5027   */\n      iszero\n        /* \"#utility.yul\":4995:5027   */\n      swap1\n      pop\n        /* \"#utility.yul\":4943:5033   */\n      swap2\n      swap1\n      pop\n      jump\t// out\n        /* \"#utility.yul\":5039:5148   */\n    tag_111:\n        /* \"#utility.yul\":5120:5141   */\n      tag_202\n        /* \"#utility.yul\":5135:5140   */\n      dup2\n        /* \"#utility.yul\":5120:5141   */\n      tag_110\n      jump\t// in\n    tag_202:\n        /* \"#utility.yul\":5115:5118   */\n      dup3\n        /* \"#utility.yul\":5108:5142   */\n      mstore\n        /* \"#utility.yul\":5039:5148   */\n      pop\n      pop\n      jump\t// out\n        /* \"#utility.yul\":5154:6008   */\n    tag_25:\n        /* \"#utility.yul\":5401:5405   */\n      0x00\n        /* \"#utility.yul\":5439:5442   */\n      0xc0\n        /* \"#utility.yul\":5428:5437   */\n      dup3\n        /* \"#utility.yul\":5424:5443   */\n      add\n        /* \"#utility.yul\":5416:5443   */\n      swap1\n      pop\n        /* \"#utility.yul\":5453:5524   */\n      tag_204\n        /* \"#utility.yul\":5521:5522   */\n      0x00\n        /* \"#utility.yul\":5510:5519   */\n      dup4\n        /* \"#utility.yul\":5506:5523   */\n      add\n        /* \"#utility.yul\":5497:5503   */\n      dup10\n        /* \"#utility.yul\":5453:5524   */\n      tag_103\n      jump\t// in\n    tag_204:\n        /* \"#utility.yul\":5571:5580   */\n      dup2\n        /* \"#utility.yul\":5565:5569   */\n      dup2\n        /* \"#utility.yul\":5561:5581   */\n      sub\n        /* \"#utility.yul\":5556:5558   */\n      0x20\n        /* \"#utility.yul\":5545:5554   */\n      dup4\n        /* \"#utility.yul\":5541:5559   */\n      add\n        /* \"#utility.yul\":5534:5582   */\n      mstore\n        /* \"#utility.yul\":5599:5677   */\n      tag_205\n        /* \"#utility.yul\":5672:5676   */\n      dup2\n        /* \"#utility.yul\":5663:5669   */\n      dup9\n        /* \"#utility.yul\":5599:5677   */\n      tag_108\n      jump\t// in\n    tag_205:\n        /* \"#utility.yul\":5591:5677   */\n      swap1\n      pop\n        /* \"#utility.yul\":5687:5759   */\n      tag_206\n        /* \"#utility.yul\":5755:5757   */\n      0x40\n        /* \"#utility.yul\":5744:5753   */\n      dup4\n        /* \"#utility.yul\":5740:5758   */\n      add\n        /* \"#utility.yul\":5731:5737   */\n      dup8\n        /* \"#utility.yul\":5687:5759   */\n      tag_109\n      jump\t// in\n    tag_206:\n        /* \"#utility.yul\":5769:5841   */\n      tag_207\n        /* \"#utility.yul\":5837:5839   */\n      0x60\n        /* \"#utility.yul\":5826:5835   */\n      dup4\n        /* \"#utility.yul\":5822:5840   */\n      add\n        /* \"#utility.yul\":5813:5819   */\n      dup7\n        /* \"#utility.yul\":5769:5841   */\n      tag_103\n      jump\t// in\n    tag_207:\n        /* \"#utility.yul\":5851:5918   */\n      tag_208\n        /* \"#utility.yul\":5913:5916   */\n      0x80\n        /* \"#utility.yul\":5902:5911   */\n      dup4\n        /* \"#utility.yul\":5898:5917   */\n      add\n        /* \"#utility.yul\":5889:5895   */\n      dup6\n        /* \"#utility.yul\":5851:5918   */\n      tag_111\n      jump\t// in\n    tag_208:\n        /* \"#utility.yul\":5928:6001   */\n      tag_209\n        /* \"#utility.yul\":5996:5999   */\n      0xa0\n        /* \"#utility.yul\":5985:5994   */\n      dup4\n        /* \"#utility.yul\":5981:6000   */\n      add\n        /* \"#utility.yul\":5972:5978   */\n      dup5\n        /* \"#utility.yul\":5928:6001   */\n      tag_109\n      jump\t// in\n    tag_209:\n        /* \"#utility.yul\":5154:6008   */\n      swap8\n      swap7\n      pop\n      pop\n      pop\n      pop\n      pop\n      pop\n      pop\n      jump\t// out\n        /* \"#utility.yul\":6014:6688   */\n    tag_28:\n        /* \"#utility.yul\":6094:6100   */\n      0x00\n        /* \"#utility.yul\":6102:6108   */\n      0x00\n        /* \"#utility.yul\":6110:6116   */\n      0x00\n        /* \"#utility.yul\":6159:6161   */\n      0x40\n        /* \"#utility.yul\":6147:6156   */\n      dup5\n        /* \"#utility.yul\":6138:6145   */\n      dup7\n        /* \"#utility.yul\":6134:6157   */\n      sub\n        /* \"#utility.yul\":6130:6162   */\n      slt\n        /* \"#utility.yul\":6127:6246   */\n      iszero\n      tag_211\n      jumpi\n        /* \"#utility.yul\":6165:6244   */\n      tag_212\n      tag_90\n      jump\t// in\n    tag_212:\n        /* \"#utility.yul\":6127:6246   */\n    tag_211:\n        /* \"#utility.yul\":6285:6286   */\n      0x00\n        /* \"#utility.yul\":6310:6363   */\n      tag_213\n        /* \"#utility.yul\":6355:6362   */\n      dup7\n        /* \"#utility.yul\":6346:6352   */\n      dup3\n        /* \"#utility.yul\":6335:6344   */\n      dup8\n        /* \"#utility.yul\":6331:6353   */\n      add\n        /* \"#utility.yul\":6310:6363   */\n      tag_94\n      jump\t// in\n    tag_213:\n        /* \"#utility.yul\":6300:6363   */\n      swap4\n      pop\n        /* \"#utility.yul\":6256:6373   */\n      pop\n        /* \"#utility.yul\":6440:6442   */\n      0x20\n        /* \"#utility.yul\":6429:6438   */\n      dup5\n        /* \"#utility.yul\":6425:6443   */\n      add\n        /* \"#utility.yul\":6412:6444   */\n      calldataload\n        /* \"#utility.yul\":6471:6489   */\n      0xffffffffffffffff\n        /* \"#utility.yul\":6463:6469   */\n      dup2\n        /* \"#utility.yul\":6460:6490   */\n      gt\n        /* \"#utility.yul\":6457:6574   */\n      iszero\n      tag_214\n      jumpi\n        /* \"#utility.yul\":6493:6572   */\n      tag_215\n      tag_91\n      jump\t// in\n    tag_215:\n        /* \"#utility.yul\":6457:6574   */\n    tag_214:\n        /* \"#utility.yul\":6606:6671   */\n      tag_216\n        /* \"#utility.yul\":6663:6670   */\n      dup7\n        /* \"#utility.yul\":6654:6660   */\n      dup3\n        /* \"#utility.yul\":6643:6652   */\n      dup8\n        /* \"#utility.yul\":6639:6661   */\n      add\n        /* \"#utility.yul\":6606:6671   */\n      tag_102\n      jump\t// in\n    tag_216:\n        /* \"#utility.yul\":6588:6671   */\n      swap3\n      pop\n      swap3\n      pop\n        /* \"#utility.yul\":6383:6681   */\n      pop\n        /* \"#utility.yul\":6014:6688   */\n      swap3\n      pop\n      swap3\n      pop\n      swap3\n      jump\t// out\n        /* \"#utility.yul\":6694:6916   */\n    tag_33:\n        /* \"#utility.yul\":6787:6791   */\n      0x00\n        /* \"#utility.yul\":6825:6827   */\n      0x20\n        /* \"#utility.yul\":6814:6823   */\n      dup3\n        /* \"#utility.yul\":6810:6828   */\n      add\n        /* \"#utility.yul\":6802:6828   */\n      swap1\n      pop\n        /* \"#utility.yul\":6838:6909   */\n      tag_218\n        /* \"#utility.yul\":6906:6907   */\n      0x00\n        /* \"#utility.yul\":6895:6904   */\n      dup4\n        /* \"#utility.yul\":6891:6908   */\n      add\n        /* \"#utility.yul\":6882:6888   */\n      dup5\n        /* \"#utility.yul\":6838:6909   */\n      tag_109\n      jump\t// in\n    tag_218:\n        /* \"#utility.yul\":6694:6916   */\n      swap3\n      swap2\n      pop\n      pop\n      jump\t// out\n        /* \"#utility.yul\":6922:7084   */\n    tag_112:\n        /* \"#utility.yul\":7062:7076   */\n      0x4f6e6c792063726561746f720000000000000000000000000000000000000000\n        /* \"#utility.yul\":7058:7059   */\n      0x00\n        /* \"#utility.yul\":7050:7056   */\n      dup3\n        /* \"#utility.yul\":7046:7060   */\n      add\n        /* \"#utility.yul\":7039:7077   */\n      mstore\n        /* \"#utility.yul\":6922:7084   */\n      pop\n      jump\t// out\n        /* \"#utility.yul\":7090:7456   */\n    tag_113:\n        /* \"#utility.yul\":7232:7235   */\n      0x00\n        /* \"#utility.yul\":7253:7320   */\n      tag_221\n        /* \"#utility.yul\":7317:7319   */\n      0x0c\n        /* \"#utility.yul\":7312:7315   */\n      dup4\n        /* \"#utility.yul\":7253:7320   */\n      tag_105\n      jump\t// in\n    tag_221:\n        /* \"#utility.yul\":7246:7320   */\n      swap2\n      pop\n        /* \"#utility.yul\":7329:7422   */\n      tag_222\n        /* \"#utility.yul\":7418:7421   */\n      dup3\n        /* \"#utility.yul\":7329:7422   */\n      tag_112\n      jump\t// in\n    tag_222:\n        /* \"#utility.yul\":7447:7449   */\n      0x20\n        /* \"#utility.yul\":7442:7445   */\n      dup3\n        /* \"#utility.yul\":7438:7450   */\n      add\n        /* \"#utility.yul\":7431:7450   */\n      swap1\n      pop\n        /* \"#utility.yul\":7090:7456   */\n      swap2\n      swap1\n      pop\n      jump\t// out\n        /* \"#utility.yul\":7462:7881   */\n    tag_37:\n        /* \"#utility.yul\":7628:7632   */\n      0x00\n        /* \"#utility.yul\":7666:7668   */\n      0x20\n        /* \"#utility.yul\":7655:7664   */\n      dup3\n        /* \"#utility.yul\":7651:7669   */\n      add\n        /* \"#utility.yul\":7643:7669   */\n      swap1\n      pop\n        /* \"#utility.yul\":7715:7724   */\n      dup2\n        /* \"#utility.yul\":7709:7713   */\n      dup2\n        /* \"#utility.yul\":7705:7725   */\n      sub\n        /* \"#utility.yul\":7701:7702   */\n      0x00\n        /* \"#utility.yul\":7690:7699   */\n      dup4\n        /* \"#utility.yul\":7686:7703   */\n      add\n        /* \"#utility.yul\":7679:7726   */\n      mstore\n        /* \"#utility.yul\":7743:7874   */\n      tag_224\n        /* \"#utility.yul\":7869:7873   */\n      dup2\n        /* \"#utility.yul\":7743:7874   */\n      tag_113\n      jump\t// in\n    tag_224:\n        /* \"#utility.yul\":7735:7874   */\n      swap1\n      pop\n        /* \"#utility.yul\":7462:7881   */\n      swap2\n      swap1\n      pop\n      jump\t// out\n        /* \"#utility.yul\":7887:8052   */\n    tag_114:\n        /* \"#utility.yul\":8027:8044   */\n      0x5461736b206e6f74206163746976650000000000000000000000000000000000\n        /* \"#utility.yul\":8023:8024   */\n      0x00\n        /* \"#utility.yul\":8015:8021   */\n      dup3\n        /* \"#utility.yul\":8011:8025   */\n      add\n        /* \"#utility.yul\":8004:8045   */\n      mstore\n        /* \"#utility.yul\":7887:8052   */\n      pop\n      jump\t// out\n        /* \"#utility.yul\":8058:8424   */\n    tag_115:\n        /* \"#utility.yul\":8200:8203   */\n      0x00\n        /* \"#utility.yul\":8221:8288   */\n      tag_227\n        /* \"#utility.yul\":8285:8287   */\n      0x0f\n        /* \"#utility.yul\":8280:8283   */\n      dup4\n        /* \"#utility.yul\":8221:8288   */\n      tag_105\n      jump\t// in\n    tag_227:\n        /* \"#utility.yul\":8214:8288   */\n      swap2\n      pop\n        /* \"#utility.yul\":8297:8390   */\n      tag_228\n        /* \"#utility.yul\":8386:8389   */\n      dup3\n        /* \"#utility.yul\":8297:8390   */\n      tag_114\n      jump\t// in\n    tag_228:\n        /* \"#utility.yul\":8415:8417   */\n      0x20\n        /* \"#utility.yul\":8410:8413   */\n      dup3\n        /* \"#utility.yul\":8406:8418   */\n      add\n        /* \"#utility.yul\":8399:8418   */\n      swap1\n      pop\n        /* \"#utility.yul\":8058:8424   */\n      swap2\n      swap1\n      pop\n      jump\t// out\n        /* \"#utility.yul\":8430:8849   */\n    tag_40:\n        /* \"#utility.yul\":8596:8600   */\n      0x00\n        /* \"#utility.yul\":8634:8636   */\n      0x20\n        /* \"#utility.yul\":8623:8632   */\n      dup3\n        /* \"#utility.yul\":8619:8637   */\n      add\n        /* \"#utility.yul\":8611:8637   */\n      swap1\n      pop\n        /* \"#utility.yul\":8683:8692   */\n      dup2\n        /* \"#utility.yul\":8677:8681   */\n      dup2\n        /* \"#utility.yul\":8673:8693   */\n      sub\n        /* \"#utility.yul\":8669:8670   */\n      0x00\n        /* \"#utility.yul\":8658:8667   */\n      dup4\n        /* \"#utility.yul\":8654:8671   */\n      add\n        /* \"#utility.yul\":8647:8694   */\n      mstore\n        /* \"#utility.yul\":8711:8842   */\n      tag_230\n        /* \"#utility.yul\":8837:8841   */\n      dup2\n        /* \"#utility.yul\":8711:8842   */\n      tag_115\n      jump\t// in\n    tag_230:\n        /* \"#utility.yul\":8703:8842   */\n      swap1\n      pop\n        /* \"#utility.yul\":8430:8849   */\n      swap2\n      swap1\n      pop\n      jump\t// out\n        /* \"#utility.yul\":8855:9187   */\n    tag_42:\n        /* \"#utility.yul\":8976:8980   */\n      0x00\n        /* \"#utility.yul\":9014:9016   */\n      0x40\n        /* \"#utility.yul\":9003:9012   */\n      dup3\n        /* \"#utility.yul\":8999:9017   */\n      add\n        /* \"#utility.yul\":8991:9017   */\n      swap1\n      pop\n        /* \"#utility.yul\":9027:9098   */\n      tag_232\n        /* \"#utility.yul\":9095:9096   */\n      0x00\n        /* \"#utility.yul\":9084:9093   */\n      dup4\n        /* \"#utility.yul\":9080:9097   */\n      add\n        /* \"#utility.yul\":9071:9077   */\n      dup6\n        /* \"#utility.yul\":9027:9098   */\n      tag_103\n      jump\t// in\n    tag_232:\n        /* \"#utility.yul\":9108:9180   */\n      tag_233\n        /* \"#utility.yul\":9176:9178   */\n      0x20\n        /* \"#utility.yul\":9165:9174   */\n      dup4\n        /* \"#utility.yul\":9161:9179   */\n      add\n        /* \"#utility.yul\":9152:9158   */\n      dup5\n        /* \"#utility.yul\":9108:9180   */\n      tag_109\n      jump\t// in\n    tag_233:\n        /* \"#utility.yul\":8855:9187   */\n      swap4\n      swap3\n      pop\n      pop\n      pop\n      jump\t// out\n        /* \"#utility.yul\":9193:9309   */\n    tag_116:\n        /* \"#utility.yul\":9263:9284   */\n      tag_235\n        /* \"#utility.yul\":9278:9283   */\n      dup2\n        /* \"#utility.yul\":9263:9284   */\n      tag_110\n      jump\t// in\n    tag_235:\n        /* \"#utility.yul\":9256:9261   */\n      dup2\n        /* \"#utility.yul\":9253:9285   */\n      eq\n        /* \"#utility.yul\":9243:9303   */\n      tag_236\n      jumpi\n        /* \"#utility.yul\":9299:9300   */\n      0x00\n        /* \"#utility.yul\":9296:9297   */\n      0x00\n        /* \"#utility.yul\":9289:9301   */\n      revert\n        /* \"#utility.yul\":9243:9303   */\n    tag_236:\n        /* \"#utility.yul\":9193:9309   */\n      pop\n      jump\t// out\n        /* \"#utility.yul\":9315:9452   */\n    tag_117:\n        /* \"#utility.yul\":9369:9374   */\n      0x00\n        /* \"#utility.yul\":9400:9406   */\n      dup2\n        /* \"#utility.yul\":9394:9407   */\n      mload\n        /* \"#utility.yul\":9385:9407   */\n      swap1\n      pop\n        /* \"#utility.yul\":9416:9446   */\n      tag_238\n        /* \"#utility.yul\":9440:9445   */\n      dup2\n        /* \"#utility.yul\":9416:9446   */\n      tag_116\n      jump\t// in\n    tag_238:\n        /* \"#utility.yul\":9315:9452   */\n      swap3\n      swap2\n      pop\n      pop\n      jump\t// out\n        /* \"#utility.yul\":9458:9803   */\n    tag_46:\n        /* \"#utility.yul\":9525:9531   */\n      0x00\n        /* \"#utility.yul\":9574:9576   */\n      0x20\n        /* \"#utility.yul\":9562:9571   */\n      dup3\n        /* \"#utility.yul\":9553:9560   */\n      dup5\n        /* \"#utility.yul\":9549:9572   */\n      sub\n        /* \"#utility.yul\":9545:9577   */\n      slt\n        /* \"#utility.yul\":9542:9661   */\n      iszero\n      tag_240\n      jumpi\n        /* \"#utility.yul\":9580:9659   */\n      tag_241\n      tag_90\n      jump\t// in\n    tag_241:\n        /* \"#utility.yul\":9542:9661   */\n    tag_240:\n        /* \"#utility.yul\":9700:9701   */\n      0x00\n        /* \"#utility.yul\":9725:9786   */\n      tag_242\n        /* \"#utility.yul\":9778:9785   */\n      dup5\n        /* \"#utility.yul\":9769:9775   */\n      dup3\n        /* \"#utility.yul\":9758:9767   */\n      dup6\n        /* \"#utility.yul\":9754:9776   */\n      add\n        /* \"#utility.yul\":9725:9786   */\n      tag_117\n      jump\t// in\n    tag_242:\n        /* \"#utility.yul\":9715:9786   */\n      swap2\n      pop\n        /* \"#utility.yul\":9671:9796   */\n      pop\n        /* \"#utility.yul\":9458:9803   */\n      swap3\n      swap2\n      pop\n      pop\n      jump\t// out\n        /* \"#utility.yul\":9809:9989   */\n    tag_118:\n        /* \"#utility.yul\":9857:9934   */\n      0x4e487b7100000000000000000000000000000000000000000000000000000000\n        /* \"#utility.yul\":9854:9855   */\n      0x00\n        /* \"#utility.yul\":9847:9935   */\n      mstore\n        /* \"#utility.yul\":9954:9958   */\n      0x11\n        /* \"#utility.yul\":9951:9952   */\n      0x04\n        /* \"#utility.yul\":9944:9959   */\n      mstore\n        /* \"#utility.yul\":9978:9982   */\n      0x24\n        /* \"#utility.yul\":9975:9976   */\n      0x00\n        /* \"#utility.yul\":9968:9983   */\n      revert\n        /* \"#utility.yul\":9995:10186   */\n    tag_54:\n        /* \"#utility.yul\":10035:10038   */\n      0x00\n        /* \"#utility.yul\":10054:10074   */\n      tag_245\n        /* \"#utility.yul\":10072:10073   */\n      dup3\n        /* \"#utility.yul\":10054:10074   */\n      tag_92\n      jump\t// in\n    tag_245:\n        /* \"#utility.yul\":10049:10074   */\n      swap2\n      pop\n        /* \"#utility.yul\":10088:10108   */\n      tag_246\n        /* \"#utility.yul\":10106:10107   */\n      dup4\n        /* \"#utility.yul\":10088:10108   */\n      tag_92\n      jump\t// in\n    tag_246:\n        /* \"#utility.yul\":10083:10108   */\n      swap3\n      pop\n        /* \"#utility.yul\":10131:10132   */\n      dup3\n        /* \"#utility.yul\":10128:10129   */\n      dup3\n        /* \"#utility.yul\":10124:10133   */\n      add\n        /* \"#utility.yul\":10117:10133   */\n      swap1\n      pop\n        /* \"#utility.yul\":10152:10155   */\n      dup1\n        /* \"#utility.yul\":10149:10150   */\n      dup3\n        /* \"#utility.yul\":10146:10156   */\n      gt\n        /* \"#utility.yul\":10143:10179   */\n      iszero\n      tag_247\n      jumpi\n        /* \"#utility.yul\":10159:10177   */\n      tag_248\n      tag_118\n      jump\t// in\n    tag_248:\n        /* \"#utility.yul\":10143:10179   */\n    tag_247:\n        /* \"#utility.yul\":9995:10186   */\n      swap3\n      swap2\n      pop\n      pop\n      jump\t// out\n        /* \"#utility.yul\":10192:10357   */\n    tag_119:\n        /* \"#utility.yul\":10332:10349   */\n      0x54696d656c6f636b206163746976650000000000000000000000000000000000\n        /* \"#utility.yul\":10328:10329   */\n      0x00\n        /* \"#utility.yul\":10320:10326   */\n      dup3\n        /* \"#utility.yul\":10316:10330   */\n      add\n        /* \"#utility.yul\":10309:10350   */\n      mstore\n        /* \"#utility.yul\":10192:10357   */\n      pop\n      jump\t// out\n        /* \"#utility.yul\":10363:10729   */\n    tag_120:\n        /* \"#utility.yul\":10505:10508   */\n      0x00\n        /* \"#utility.yul\":10526:10593   */\n      tag_251\n        /* \"#utility.yul\":10590:10592   */\n      0x0f\n        /* \"#utility.yul\":10585:10588   */\n      dup4\n        /* \"#utility.yul\":10526:10593   */\n      tag_105\n      jump\t// in\n    tag_251:\n        /* \"#utility.yul\":10519:10593   */\n      swap2\n      pop\n        /* \"#utility.yul\":10602:10695   */\n      tag_252\n        /* \"#utility.yul\":10691:10694   */\n      dup3\n        /* \"#utility.yul\":10602:10695   */\n      tag_119\n      jump\t// in\n    tag_252:\n        /* \"#utility.yul\":10720:10722   */\n      0x20\n        /* \"#utility.yul\":10715:10718   */\n      dup3\n        /* \"#utility.yul\":10711:10723   */\n      add\n        /* \"#utility.yul\":10704:10723   */\n      swap1\n      pop\n        /* \"#utility.yul\":10363:10729   */\n      swap2\n      swap1\n      pop\n      jump\t// out\n        /* \"#utility.yul\":10735:11154   */\n    tag_57:\n        /* \"#utility.yul\":10901:10905   */\n      0x00\n        /* \"#utility.yul\":10939:10941   */\n      0x20\n        /* \"#utility.yul\":10928:10937   */\n      dup3\n        /* \"#utility.yul\":10924:10942   */\n      add\n        /* \"#utility.yul\":10916:10942   */\n      swap1\n      pop\n        /* \"#utility.yul\":10988:10997   */\n      dup2\n        /* \"#utility.yul\":10982:10986   */\n      dup2\n        /* \"#utility.yul\":10978:10998   */\n      sub\n        /* \"#utility.yul\":10974:10975   */\n      0x00\n        /* \"#utility.yul\":10963:10972   */\n      dup4\n        /* \"#utility.yul\":10959:10976   */\n      add\n        /* \"#utility.yul\":10952:10999   */\n      mstore\n        /* \"#utility.yul\":11016:11147   */\n      tag_254\n        /* \"#utility.yul\":11142:11146   */\n      dup2\n        /* \"#utility.yul\":11016:11147   */\n      tag_120\n      jump\t// in\n    tag_254:\n        /* \"#utility.yul\":11008:11147   */\n      swap1\n      pop\n        /* \"#utility.yul\":10735:11154   */\n      swap2\n      swap1\n      pop\n      jump\t// out\n        /* \"#utility.yul\":11160:11328   */\n    tag_121:\n        /* \"#utility.yul\":11300:11320   */\n      0x416d6f756e74206d757374206265203e20300000000000000000000000000000\n        /* \"#utility.yul\":11296:11297   */\n      0x00\n        /* \"#utility.yul\":11288:11294   */\n      dup3\n        /* \"#utility.yul\":11284:11298   */\n      add\n        /* \"#utility.yul\":11277:11321   */\n      mstore\n        /* \"#utility.yul\":11160:11328   */\n      pop\n      jump\t// out\n        /* \"#utility.yul\":11334:11700   */\n    tag_122:\n        /* \"#utility.yul\":11476:11479   */\n      0x00\n        /* \"#utility.yul\":11497:11564   */\n      tag_257\n        /* \"#utility.yul\":11561:11563   */\n      0x12\n        /* \"#utility.yul\":11556:11559   */\n      dup4\n        /* \"#utility.yul\":11497:11564   */\n      tag_105\n      jump\t// in\n    tag_257:\n        /* \"#utility.yul\":11490:11564   */\n      swap2\n      pop\n        /* \"#utility.yul\":11573:11666   */\n      tag_258\n        /* \"#utility.yul\":11662:11665   */\n      dup3\n        /* \"#utility.yul\":11573:11666   */\n      tag_121\n      jump\t// in\n    tag_258:\n        /* \"#utility.yul\":11691:11693   */\n      0x20\n        /* \"#utility.yul\":11686:11689   */\n      dup3\n        /* \"#utility.yul\":11682:11694   */\n      add\n        /* \"#utility.yul\":11675:11694   */\n      swap1\n      pop\n        /* \"#utility.yul\":11334:11700   */\n      swap2\n      swap1\n      pop\n      jump\t// out\n        /* \"#utility.yul\":11706:12125   */\n    tag_66:\n        /* \"#utility.yul\":11872:11876   */\n      0x00\n        /* \"#utility.yul\":11910:11912   */\n      0x20\n        /* \"#utility.yul\":11899:11908   */\n      dup3\n        /* \"#utility.yul\":11895:11913   */\n      add\n        /* \"#utility.yul\":11887:11913   */\n      swap1\n      pop\n        /* \"#utility.yul\":11959:11968   */\n      dup2\n        /* \"#utility.yul\":11953:11957   */\n      dup2\n        /* \"#utility.yul\":11949:11969   */\n      sub\n        /* \"#utility.yul\":11945:11946   */\n      0x00\n        /* \"#utility.yul\":11934:11943   */\n      dup4\n        /* \"#utility.yul\":11930:11947   */\n      add\n        /* \"#utility.yul\":11923:11970   */\n      mstore\n        /* \"#utility.yul\":11987:12118   */\n      tag_260\n        /* \"#utility.yul\":12113:12117   */\n      dup2\n        /* \"#utility.yul\":11987:12118   */\n      tag_122\n      jump\t// in\n    tag_260:\n        /* \"#utility.yul\":11979:12118   */\n      swap1\n      pop\n        /* \"#utility.yul\":11706:12125   */\n      swap2\n      swap1\n      pop\n      jump\t// out\n        /* \"#utility.yul\":12131:12573   */\n    tag_68:\n        /* \"#utility.yul\":12280:12284   */\n      0x00\n        /* \"#utility.yul\":12318:12320   */\n      0x60\n        /* \"#utility.yul\":12307:12316   */\n      dup3\n        /* \"#utility.yul\":12303:12321   */\n      add\n        /* \"#utility.yul\":12295:12321   */\n      swap1\n      pop\n        /* \"#utility.yul\":12331:12402   */\n      tag_262\n        /* \"#utility.yul\":12399:12400   */\n      0x00\n        /* \"#utility.yul\":12388:12397   */\n      dup4\n        /* \"#utility.yul\":12384:12401   */\n      add\n        /* \"#utility.yul\":12375:12381   */\n      dup7\n        /* \"#utility.yul\":12331:12402   */\n      tag_103\n      jump\t// in\n    tag_262:\n        /* \"#utility.yul\":12412:12484   */\n      tag_263\n        /* \"#utility.yul\":12480:12482   */\n      0x20\n        /* \"#utility.yul\":12469:12478   */\n      dup4\n        /* \"#utility.yul\":12465:12483   */\n      add\n        /* \"#utility.yul\":12456:12462   */\n      dup6\n        /* \"#utility.yul\":12412:12484   */\n      tag_103\n      jump\t// in\n    tag_263:\n        /* \"#utility.yul\":12494:12566   */\n      tag_264\n        /* \"#utility.yul\":12562:12564   */\n      0x40\n        /* \"#utility.yul\":12551:12560   */\n      dup4\n        /* \"#utility.yul\":12547:12565   */\n      add\n        /* \"#utility.yul\":12538:12544   */\n      dup5\n        /* \"#utility.yul\":12494:12566   */\n      tag_109\n      jump\t// in\n    tag_264:\n        /* \"#utility.yul\":12131:12573   */\n      swap5\n      swap4\n      pop\n      pop\n      pop\n      pop\n      jump\t// out\n        /* \"#utility.yul\":12579:12759   */\n    tag_123:\n        /* \"#utility.yul\":12627:12704   */\n      0x4e487b7100000000000000000000000000000000000000000000000000000000\n        /* \"#utility.yul\":12624:12625   */\n      0x00\n        /* \"#utility.yul\":12617:12705   */\n      mstore\n        /* \"#utility.yul\":12724:12728   */\n      0x41\n        /* \"#utility.yul\":12721:12722   */\n      0x04\n        /* \"#utility.yul\":12714:12729   */\n      mstore\n        /* \"#utility.yul\":12748:12752   */\n      0x24\n        /* \"#utility.yul\":12745:12746   */\n      0x00\n        /* \"#utility.yul\":12738:12753   */\n      revert\n        /* \"#utility.yul\":12765:12945   */\n    tag_124:\n        /* \"#utility.yul\":12813:12890   */\n      0x4e487b7100000000000000000000000000000000000000000000000000000000\n        /* \"#utility.yul\":12810:12811   */\n      0x00\n        /* \"#utility.yul\":12803:12891   */\n      mstore\n        /* \"#utility.yul\":12910:12914   */\n      0x22\n        /* \"#utility.yul\":12907:12908   */\n      0x04\n        /* \"#utility.yul\":12900:12915   */\n      mstore\n        /* \"#utility.yul\":12934:12938   */\n      0x24\n        /* \"#utility.yul\":12931:12932   */\n      0x00\n        /* \"#utility.yul\":12924:12939   */\n      revert\n        /* \"#utility.yul\":12951:13271   */\n    tag_79:\n        /* \"#utility.yul\":12995:13001   */\n      0x00\n        /* \"#utility.yul\":13032:13033   */\n      0x02\n        /* \"#utility.yul\":13026:13030   */\n      dup3\n        /* \"#utility.yul\":13022:13034   */\n      div\n        /* \"#utility.yul\":13012:13034   */\n      swap1\n      pop\n        /* \"#utility.yul\":13079:13080   */\n      0x01\n        /* \"#utility.yul\":13073:13077   */\n      dup3\n        /* \"#utility.yul\":13069:13081   */\n      and\n        /* \"#utility.yul\":13100:13118   */\n      dup1\n        /* \"#utility.yul\":13090:13171   */\n      tag_268\n      jumpi\n        /* \"#utility.yul\":13156:13160   */\n      0x7f\n        /* \"#utility.yul\":13148:13154   */\n      dup3\n        /* \"#utility.yul\":13144:13161   */\n      and\n        /* \"#utility.yul\":13134:13161   */\n      swap2\n      pop\n        /* \"#utility.yul\":13090:13171   */\n    tag_268:\n        /* \"#utility.yul\":13218:13220   */\n      0x20\n        /* \"#utility.yul\":13210:13216   */\n      dup3\n        /* \"#utility.yul\":13207:13221   */\n      lt\n        /* \"#utility.yul\":13187:13205   */\n      dup2\n        /* \"#utility.yul\":13184:13222   */\n      sub\n        /* \"#utility.yul\":13181:13265   */\n      tag_269\n      jumpi\n        /* \"#utility.yul\":13237:13255   */\n      tag_270\n      tag_124\n      jump\t// in\n    tag_270:\n        /* \"#utility.yul\":13181:13265   */\n    tag_269:\n        /* \"#utility.yul\":13002:13271   */\n      pop\n        /* \"#utility.yul\":12951:13271   */\n      swap2\n      swap1\n      pop\n      jump\t// out\n        /* \"#utility.yul\":13277:13418   */\n    tag_125:\n        /* \"#utility.yul\":13326:13330   */\n      0x00\n        /* \"#utility.yul\":13349:13352   */\n      dup2\n        /* \"#utility.yul\":13341:13352   */\n      swap1\n      pop\n        /* \"#utility.yul\":13372:13375   */\n      dup2\n        /* \"#utility.yul\":13369:13370   */\n      0x00\n        /* \"#utility.yul\":13362:13376   */\n      mstore\n        /* \"#utility.yul\":13406:13410   */\n      0x20\n        /* \"#utility.yul\":13403:13404   */\n      0x00\n        /* \"#utility.yul\":13393:13411   */\n      keccak256\n        /* \"#utility.yul\":13385:13411   */\n      swap1\n      pop\n        /* \"#utility.yul\":13277:13418   */\n      swap2\n      swap1\n      pop\n      jump\t// out\n        /* \"#utility.yul\":13424:13517   */\n    tag_126:\n        /* \"#utility.yul\":13461:13467   */\n      0x00\n        /* \"#utility.yul\":13508:13510   */\n      0x20\n        /* \"#utility.yul\":13503:13505   */\n      0x1f\n        /* \"#utility.yul\":13496:13501   */\n      dup4\n        /* \"#utility.yul\":13492:13506   */\n      add\n        /* \"#utility.yul\":13488:13511   */\n      div\n        /* \"#utility.yul\":13478:13511   */\n      swap1\n      pop\n        /* \"#utility.yul\":13424:13517   */\n      swap2\n      swap1\n      pop\n      jump\t// out\n        /* \"#utility.yul\":13523:13630   */\n    tag_127:\n        /* \"#utility.yul\":13567:13575   */\n      0x00\n        /* \"#utility.yul\":13617:13622   */\n      dup3\n        /* \"#utility.yul\":13611:13615   */\n      dup3\n        /* \"#utility.yul\":13607:13623   */\n      shl\n        /* \"#utility.yul\":13586:13623   */\n      swap1\n      pop\n        /* \"#utility.yul\":13523:13630   */\n      swap3\n      swap2\n      pop\n      pop\n      jump\t// out\n        /* \"#utility.yul\":13636:14029   */\n    tag_128:\n        /* \"#utility.yul\":13705:13711   */\n      0x00\n        /* \"#utility.yul\":13755:13756   */\n      0x08\n        /* \"#utility.yul\":13743:13753   */\n      dup4\n        /* \"#utility.yul\":13739:13757   */\n      mul\n        /* \"#utility.yul\":13778:13875   */\n      tag_275\n        /* \"#utility.yul\":13808:13874   */\n      0xffffffffffffffffffffffffffffffffffffffffffffffffffffffffffffffff\n        /* \"#utility.yul\":13797:13806   */\n      dup3\n        /* \"#utility.yul\":13778:13875   */\n      tag_127\n      jump\t// in\n    tag_275:\n        /* \"#utility.yul\":13896:13935   */\n      tag_276\n        /* \"#utility.yul\":13926:13934   */\n      dup7\n        /* \"#utility.yul\":13915:13924   */\n      dup4\n        /* \"#utility.yul\":13896:13935   */\n      tag_127\n      jump\t// in\n    tag_276:\n        /* \"#utility.yul\":13884:13935   */\n      swap6\n      pop\n        /* \"#utility.yul\":13968:13972   */\n      dup1\n        /* \"#utility.yul\":13964:13973   */\n      not\n        /* \"#utility.yul\":13957:13962   */\n      dup5\n        /* \"#utility.yul\":13953:13974   */\n      and\n        /* \"#utility.yul\":13944:13974   */\n      swap4\n      pop\n        /* \"#utility.yul\":14017:14021   */\n      dup1\n        /* \"#utility.yul\":14007:14015   */\n      dup7\n        /* \"#utility.yul\":14003:14022   */\n      and\n        /* \"#utility.yul\":13996:14001   */\n      dup5\n        /* \"#utility.yul\":13993:14023   */\n      or\n        /* \"#utility.yul\":13983:14023   */\n      swap3\n      pop\n        /* \"#utility.yul\":13712:14029   */\n      pop\n      pop\n        /* \"#utility.yul\":13636:14029   */\n      swap4\n      swap3\n      pop\n      pop\n      pop\n      jump\t// out\n        /* \"#utility.yul\":14035:14095   */\n    tag_129:\n        /* \"#utility.yul\":14063:14066   */\n      0x00\n        /* \"#utility.yul\":14084:14089   */\n      dup2\n        /* \"#utility.yul\":14077:14089   */\n      swap1\n      pop\n        /* \"#utility.yul\":14035:14095   */\n      swap2\n      swap1\n      pop\n      jump\t// out\n        /* \"#utility.yul\":14101:14243   */\n    tag_130:\n        /* \"#utility.yul\":14151:14160   */\n      0x00\n        /* \"#utility.yul\":14184:14237   */\n      tag_279\n        /* \"#utility.yul\":14202:14236   */\n      tag_280\n        /* \"#utility.yul\":14211:14235   */\n      tag_281\n        /* \"#utility.yul\":14229:14234   */\n      dup5\n        /* \"#utility.yul\":14211:14235   */\n      tag_92\n      jump\t// in\n    tag_281:\n        /* \"#utility.yul\":14202:14236   */\n      tag_129\n      jump\t// in\n    tag_280:\n        /* \"#utility.yul\":14184:14237   */\n      tag_92\n      jump\t// in\n    tag_279:\n        /* \"#utility.yul\":14171:14237   */\n      swap1\n      pop\n        /* \"#utility.yul\":14101:14243   */\n      swap2\n      swap1\n      pop\n      jump\t// out\n        /* \"#utility.yul\":14249:14324   */\n    tag_131:\n        /* \"#utility.yul\":14292:14295   */\n      0x00\n        /* \"#utility.yul\":14313:14318   */\n      dup2\n        /* \"#utility.yul\":14306:14318   */\n      swap1\n      pop\n        /* \"#utility.yul\":14249:14324   */\n      swap2\n      swap1\n      pop\n      jump\t// out\n        /* \"#utility.yul\":14330:14599   */\n    tag_132:\n        /* \"#utility.yul\":14440:14479   */\n      tag_284\n        /* \"#utility.yul\":14471:14478   */\n      dup4\n        /* \"#utility.yul\":14440:14479   */\n      tag_130\n      jump\t// in\n    tag_284:\n        /* \"#utility.yul\":14501:14592   */\n      tag_285\n        /* \"#utility.yul\":14550:14591   */\n      tag_286\n        /* \"#utility.yul\":14574:14590   */\n      dup3\n        /* \"#utility.yul\":14550:14591   */\n      tag_131\n      jump\t// in\n    tag_286:\n        /* \"#utility.yul\":14542:14548   */\n      dup5\n        /* \"#utility.yul\":14535:14539   */\n      dup5\n        /* \"#utility.yul\":14529:14540   */\n      sload\n        /* \"#utility.yul\":14501:14592   */\n      tag_128\n      jump\t// in\n    tag_285:\n        /* \"#utility.yul\":14495:14499   */\n      dup3\n        /* \"#utility.yul\":14488:14593   */\n      sstore\n        /* \"#utility.yul\":14406:14599   */\n      pop\n        /* \"#utility.yul\":14330:14599   */\n      pop\n      pop\n      pop\n      jump\t// out\n        /* \"#utility.yul\":14605:14678   */\n    tag_133:\n        /* \"#utility.yul\":14650:14653   */\n      0x00\n        /* \"#utility.yul\":14671:14672   */\n      0x00\n        /* \"#utility.yul\":14664:14672   */\n      swap1\n      pop\n        /* \"#utility.yul\":14605:14678   */\n      swap1\n      jump\t// out\n        /* \"#utility.yul\":14684:14873   */\n    tag_134:\n        /* \"#utility.yul\":14761:14793   */\n      tag_289\n      tag_133\n      jump\t// in\n    tag_289:\n        /* \"#utility.yul\":14802:14867   */\n      tag_290\n        /* \"#utility.yul\":14860:14866   */\n      dup2\n        /* \"#utility.yul\":14852:14858   */\n      dup5\n        /* \"#utility.yul\":14846:14850   */\n      dup5\n        /* \"#utility.yul\":14802:14867   */\n      tag_132\n      jump\t// in\n    tag_290:\n        /* \"#utility.yul\":14737:14873   */\n      pop\n        /* \"#utility.yul\":14684:14873   */\n      pop\n      pop\n      jump\t// out\n        /* \"#utility.yul\":14879:15093   */\n    tag_135:\n        /* \"#utility.yul\":14964:14965   */\n      0x00\n        /* \"#utility.yul\":14949:15087   */\n    tag_292:\n        /* \"#utility.yul\":14974:14983   */\n      dup3\n        /* \"#utility.yul\":14971:14972   */\n      dup2\n        /* \"#utility.yul\":14968:14984   */\n      lt\n        /* \"#utility.yul\":14949:15087   */\n      iszero\n      tag_294\n      jumpi\n        /* \"#utility.yul\":15026:15077   */\n      tag_295\n        /* \"#utility.yul\":15075:15076   */\n      0x00\n        /* \"#utility.yul\":15071:15072   */\n      dup3\n        /* \"#utility.yul\":15060:15069   */\n      dup5\n        /* \"#utility.yul\":15056:15073   */\n      add\n        /* \"#utility.yul\":15026:15077   */\n      tag_134\n      jump\t// in\n    tag_295:\n        /* \"#utility.yul\":14999:15000   */\n      0x01\n        /* \"#utility.yul\":14996:14997   */\n      dup2\n        /* \"#utility.yul\":14992:15001   */\n      add\n        /* \"#utility.yul\":14987:15001   */\n      swap1\n      pop\n        /* \"#utility.yul\":14949:15087   */\n      jump(tag_292)\n    tag_294:\n        /* \"#utility.yul\":14953:14967   */\n      pop\n        /* \"#utility.yul\":14879:15093   */\n      pop\n      pop\n      jump\t// out\n        /* \"#utility.yul\":15099:15845   */\n    tag_136:\n        /* \"#utility.yul\":15200:15202   */\n      0x1f\n        /* \"#utility.yul\":15195:15198   */\n      dup3\n        /* \"#utility.yul\":15192:15203   */\n      gt\n        /* \"#utility.yul\":15189:15838   */\n      iszero\n      tag_297\n      jumpi\n        /* \"#utility.yul\":15229:15239   */\n      dup3\n        /* \"#utility.yul\":15224:15227   */\n      dup3\n        /* \"#utility.yul\":15221:15240   */\n      gt\n        /* \"#utility.yul\":15218:15828   */\n      iszero\n      tag_298\n      jumpi\n        /* \"#utility.yul\":15275:15313   */\n      tag_299\n        /* \"#utility.yul\":15307:15312   */\n      dup2\n        /* \"#utility.yul\":15275:15313   */\n      tag_125\n      jump\t// in\n    tag_299:\n        /* \"#utility.yul\":15350:15372   */\n      tag_300\n        /* \"#utility.yul\":15368:15371   */\n      dup4\n        /* \"#utility.yul\":15350:15372   */\n      tag_126\n      jump\t// in\n    tag_300:\n        /* \"#utility.yul\":15409:15438   */\n      tag_301\n        /* \"#utility.yul\":15427:15437   */\n      dup6\n        /* \"#utility.yul\":15409:15438   */\n      tag_126\n      jump\t// in\n    tag_301:\n        /* \"#utility.yul\":15599:15601   */\n      0x20\n        /* \"#utility.yul\":15587:15597   */\n      dup7\n        /* \"#utility.yul\":15584:15602   */\n      lt\n        /* \"#utility.yul\":15581:15660   */\n      iszero\n      tag_302\n      jumpi\n        /* \"#utility.yul\":15641:15642   */\n      0x00\n        /* \"#utility.yul\":15625:15642   */\n      swap1\n      pop\n        /* \"#utility.yul\":15581:15660   */\n    tag_302:\n        /* \"#utility.yul\":15710:15722   */\n      dup1\n        /* \"#utility.yul\":15700:15708   */\n      dup4\n        /* \"#utility.yul\":15696:15723   */\n      add\n        /* \"#utility.yul\":15740:15814   */\n      tag_303\n        /* \"#utility.yul\":15800:15812   */\n      dup3\n        /* \"#utility.yul\":15786:15798   */\n      dup5\n        /* \"#utility.yul\":15782:15813   */\n      sub\n        /* \"#utility.yul\":15769:15780   */\n      dup3\n        /* \"#utility.yul\":15740:15814   */\n      tag_135\n      jump\t// in\n    tag_303:\n        /* \"#utility.yul\":15241:15828   */\n      pop\n      pop\n      pop\n      pop\n        /* \"#utility.yul\":15218:15828   */\n    tag_298:\n        /* \"#utility.yul\":15189:15838   */\n    tag_297:\n        /* \"#utility.yul\":15099:15845   */\n      pop\n      pop\n      pop\n      jump\t// out\n        /* \"#utility.yul\":15851:15968   */\n    tag_137:\n        /* \"#utility.yul\":15905:15913   */\n      0x00\n        /* \"#utility.yul\":15955:15960   */\n      dup3\n        /* \"#utility.yul\":15949:15953   */\n      dup3\n        /* \"#utility.yul\":15945:15961   */\n      shr\n        /* \"#utility.yul\":15924:15961   */\n      swap1\n      pop\n        /* \"#utility.yul\":15851:15968   */\n      swap3\n      swap2\n      pop\n      pop\n      jump\t// out\n        /* \"#utility.yul\":15974:16143   */\n    tag_138:\n        /* \"#utility.yul\":16018:16024   */\n      0x00\n        /* \"#utility.yul\":16051:16102   */\n      tag_306\n        /* \"#utility.yul\":16099:16100   */\n      0x00\n        /* \"#utility.yul\":16095:16101   */\n      not\n        /* \"#utility.yul\":16087:16092   */\n      dup5\n        /* \"#utility.yul\":16084:16085   */\n      0x08\n        /* \"#utility.yul\":16080:16093   */\n      mul\n        /* \"#utility.yul\":16051:16102   */\n      tag_137\n      jump\t// in\n    tag_306:\n        /* \"#utility.yul\":16047:16103   */\n      not\n        /* \"#utility.yul\":16132:16136   */\n      dup1\n        /* \"#utility.yul\":16126:16130   */\n      dup4\n        /* \"#utility.yul\":16122:16137   */\n      and\n        /* \"#utility.yul\":16112:16137   */\n      swap2\n      pop\n        /* \"#utility.yul\":16025:16143   */\n      pop\n        /* \"#utility.yul\":15974:16143   */\n      swap3\n      swap2\n      pop\n      pop\n      jump\t// out\n        /* \"#utility.yul\":16148:16443   */\n    tag_139:\n        /* \"#utility.yul\":16224:16228   */\n      0x00\n        /* \"#utility.yul\":16370:16399   */\n      tag_308\n        /* \"#utility.yul\":16395:16398   */\n      dup4\n        /* \"#utility.yul\":16389:16393   */\n      dup4\n        /* \"#utility.yul\":16370:16399   */\n      tag_138\n      jump\t// in\n    tag_308:\n        /* \"#utility.yul\":16362:16399   */\n      swap2\n      pop\n        /* \"#utility.yul\":16432:16435   */\n      dup3\n        /* \"#utility.yul\":16429:16430   */\n      0x02\n        /* \"#utility.yul\":16425:16436   */\n      mul\n        /* \"#utility.yul\":16419:16423   */\n      dup3\n        /* \"#utility.yul\":16416:16437   */\n      or\n        /* \"#utility.yul\":16408:16437   */\n      swap1\n      pop\n        /* \"#utility.yul\":16148:16443   */\n      swap3\n      swap2\n      pop\n      pop\n      jump\t// out\n        /* \"#utility.yul\":16448:17843   */\n    tag_73:\n        /* \"#utility.yul\":16565:16602   */\n      tag_310\n        /* \"#utility.yul\":16598:16601   */\n      dup3\n        /* \"#utility.yul\":16565:16602   */\n      tag_104\n      jump\t// in\n    tag_310:\n        /* \"#utility.yul\":16667:16685   */\n      0xffffffffffffffff\n        /* \"#utility.yul\":16659:16665   */\n      dup2\n        /* \"#utility.yul\":16656:16686   */\n      gt\n        /* \"#utility.yul\":16653:16709   */\n      iszero\n      tag_311\n      jumpi\n        /* \"#utility.yul\":16689:16707   */\n      tag_312\n      tag_123\n      jump\t// in\n    tag_312:\n        /* \"#utility.yul\":16653:16709   */\n    tag_311:\n        /* \"#utility.yul\":16733:16771   */\n      tag_313\n        /* \"#utility.yul\":16765:16769   */\n      dup3\n        /* \"#utility.yul\":16759:16770   */\n      sload\n        /* \"#utility.yul\":16733:16771   */\n      tag_79\n      jump\t// in\n    tag_313:\n        /* \"#utility.yul\":16818:16885   */\n      tag_314\n        /* \"#utility.yul\":16878:16884   */\n      dup3\n        /* \"#utility.yul\":16870:16876   */\n      dup3\n        /* \"#utility.yul\":16864:16868   */\n      dup6\n        /* \"#utility.yul\":16818:16885   */\n      tag_136\n      jump\t// in\n    tag_314:\n        /* \"#utility.yul\":16912:16913   */\n      0x00\n        /* \"#utility.yul\":16936:16940   */\n      0x20\n        /* \"#utility.yul\":16923:16940   */\n      swap1\n      pop\n        /* \"#utility.yul\":16968:16970   */\n      0x1f\n        /* \"#utility.yul\":16960:16966   */\n      dup4\n        /* \"#utility.yul\":16957:16971   */\n      gt\n        /* \"#utility.yul\":16985:16986   */\n      0x01\n        /* \"#utility.yul\":16980:17598   */\n      dup2\n      eq\n      tag_316\n      jumpi\n        /* \"#utility.yul\":17642:17643   */\n      0x00\n        /* \"#utility.yul\":17659:17665   */\n      dup5\n        /* \"#utility.yul\":17656:17733   */\n      iszero\n      tag_317\n      jumpi\n        /* \"#utility.yul\":17708:17717   */\n      dup3\n        /* \"#utility.yul\":17703:17706   */\n      dup8\n        /* \"#utility.yul\":17699:17718   */\n      add\n        /* \"#utility.yul\":17693:17719   */\n      mload\n        /* \"#utility.yul\":17684:17719   */\n      swap1\n      pop\n        /* \"#utility.yul\":17656:17733   */\n    tag_317:\n        /* \"#utility.yul\":17759:17826   */\n      tag_318\n        /* \"#utility.yul\":17819:17825   */\n      dup6\n        /* \"#utility.yul\":17812:17817   */\n      dup3\n        /* \"#utility.yul\":17759:17826   */\n      tag_139\n      jump\t// in\n    tag_318:\n        /* \"#utility.yul\":17753:17757   */\n      dup7\n        /* \"#utility.yul\":17746:17827   */\n      sstore\n        /* \"#utility.yul\":17615:17837   */\n      pop\n        /* \"#utility.yul\":16950:17837   */\n      jump(tag_315)\n        /* \"#utility.yul\":16980:17598   */\n    tag_316:\n        /* \"#utility.yul\":17032:17036   */\n      0x1f\n        /* \"#utility.yul\":17028:17037   */\n      not\n        /* \"#utility.yul\":17020:17026   */\n      dup5\n        /* \"#utility.yul\":17016:17038   */\n      and\n        /* \"#utility.yul\":17066:17103   */\n      tag_319\n        /* \"#utility.yul\":17098:17102   */\n      dup7\n        /* \"#utility.yul\":17066:17103   */\n      tag_125\n      jump\t// in\n    tag_319:\n        /* \"#utility.yul\":17125:17126   */\n      0x00\n        /* \"#utility.yul\":17139:17347   */\n    tag_320:\n        /* \"#utility.yul\":17153:17160   */\n      dup3\n        /* \"#utility.yul\":17150:17151   */\n      dup2\n        /* \"#utility.yul\":17147:17161   */\n      lt\n        /* \"#utility.yul\":17139:17347   */\n      iszero\n      tag_322\n      jumpi\n        /* \"#utility.yul\":17232:17241   */\n      dup5\n        /* \"#utility.yul\":17227:17230   */\n      dup10\n        /* \"#utility.yul\":17223:17242   */\n      add\n        /* \"#utility.yul\":17217:17243   */\n      mload\n        /* \"#utility.yul\":17209:17215   */\n      dup3\n        /* \"#utility.yul\":17202:17244   */\n      sstore\n        /* \"#utility.yul\":17283:17284   */\n      0x01\n        /* \"#utility.yul\":17275:17281   */\n      dup3\n        /* \"#utility.yul\":17271:17285   */\n      add\n        /* \"#utility.yul\":17261:17285   */\n      swap2\n      pop\n        /* \"#utility.yul\":17330:17332   */\n      0x20\n        /* \"#utility.yul\":17319:17328   */\n      dup6\n        /* \"#utility.yul\":17315:17333   */\n      add\n        /* \"#utility.yul\":17302:17333   */\n      swap5\n      pop\n        /* \"#utility.yul\":17176:17180   */\n      0x20\n        /* \"#utility.yul\":17173:17174   */\n      dup2\n        /* \"#utility.yul\":17169:17181   */\n      add\n        /* \"#utility.yul\":17164:17181   */\n      swap1\n      pop\n        /* \"#utility.yul\":17139:17347   */\n      jump(tag_320)\n    tag_322:\n        /* \"#utility.yul\":17375:17381   */\n      dup7\n        /* \"#utility.yul\":17366:17373   */\n      dup4\n        /* \"#utility.yul\":17363:17382   */\n      lt\n        /* \"#utility.yul\":17360:17539   */\n      iszero\n      tag_323\n      jumpi\n        /* \"#utility.yul\":17433:17442   */\n      dup5\n        /* \"#utility.yul\":17428:17431   */\n      dup10\n        /* \"#utility.yul\":17424:17443   */\n      add\n        /* \"#utility.yul\":17418:17444   */\n      mload\n        /* \"#utility.yul\":17476:17524   */\n      tag_324\n        /* \"#utility.yul\":17518:17522   */\n      0x1f\n        /* \"#utility.yul\":17510:17516   */\n      dup10\n        /* \"#utility.yul\":17506:17523   */\n      and\n        /* \"#utility.yul\":17495:17504   */\n      dup3\n        /* \"#utility.yul\":17476:17524   */\n      tag_138\n      jump\t// in\n    tag_324:\n        /* \"#utility.yul\":17468:17474   */\n      dup4\n        /* \"#utility.yul\":17461:17525   */\n      sstore\n        /* \"#utility.yul\":17383:17539   */\n      pop\n        /* \"#utility.yul\":17360:17539   */\n    tag_323:\n        /* \"#utility.yul\":17585:17586   */\n      0x01\n        /* \"#utility.yul\":17581:17582   */\n      0x02\n        /* \"#utility.yul\":17573:17579   */\n      dup9\n        /* \"#utility.yul\":17569:17583   */\n      mul\n        /* \"#utility.yul\":17565:17587   */\n      add\n        /* \"#utility.yul\":17559:17563   */\n      dup9\n        /* \"#utility.yul\":17552:17588   */\n      sstore\n        /* \"#utility.yul\":16987:17598   */\n      pop\n      pop\n      pop\n        /* \"#utility.yul\":16950:17837   */\n    tag_315:\n      pop\n        /* \"#utility.yul\":16540:17843   */\n      pop\n      pop\n      pop\n        /* \"#utility.yul\":16448:17843   */\n      pop\n      pop\n      jump\t// out\n        /* \"#utility.yul\":17849:17997   */\n    tag_140:\n        /* \"#utility.yul\":17947:17953   */\n      dup3\n        /* \"#utility.yul\":17942:17945   */\n      dup2\n        /* \"#utility.yul\":17937:17940   */\n      dup4\n        /* \"#utility.yul\":17924:17954   */\n      calldatacopy\n        /* \"#utility.yul\":17988:17989   */\n      0x00\n        /* \"#utility.yul\":17979:17985   */\n      dup4\n        /* \"#utility.yul\":17974:17977   */\n      dup4\n        /* \"#utility.yul\":17970:17986   */\n      add\n        /* \"#utility.yul\":17963:17990   */\n      mstore\n        /* \"#utility.yul\":17849:17997   */\n      pop\n      pop\n      pop\n      jump\t// out\n        /* \"#utility.yul\":18027:18344   */\n    tag_141:\n        /* \"#utility.yul\":18125:18128   */\n      0x00\n        /* \"#utility.yul\":18146:18217   */\n      tag_327\n        /* \"#utility.yul\":18210:18216   */\n      dup4\n        /* \"#utility.yul\":18205:18208   */\n      dup6\n        /* \"#utility.yul\":18146:18217   */\n      tag_105\n      jump\t// in\n    tag_327:\n        /* \"#utility.yul\":18139:18217   */\n      swap4\n      pop\n        /* \"#utility.yul\":18227:18283   */\n      tag_328\n        /* \"#utility.yul\":18276:18282   */\n      dup4\n        /* \"#utility.yul\":18271:18274   */\n      dup6\n        /* \"#utility.yul\":18264:18269   */\n      dup5\n        /* \"#utility.yul\":18227:18283   */\n      tag_140\n      jump\t// in\n    tag_328:\n        /* \"#utility.yul\":18308:18337   */\n      tag_329\n        /* \"#utility.yul\":18330:18336   */\n      dup4\n        /* \"#utility.yul\":18308:18337   */\n      tag_107\n      jump\t// in\n    tag_329:\n        /* \"#utility.yul\":18303:18306   */\n      dup5\n        /* \"#utility.yul\":18299:18338   */\n      add\n        /* \"#utility.yul\":18292:18338   */\n      swap1\n      pop\n        /* \"#utility.yul\":18027:18344   */\n      swap4\n      swap3\n      pop\n      pop\n      pop\n      jump\t// out\n        /* \"#utility.yul\":18350:18793   */\n    tag_75:\n        /* \"#utility.yul\":18501:18505   */\n      0x00\n        /* \"#utility.yul\":18539:18541   */\n      0x40\n        /* \"#utility.yul\":18528:18537   */\n      dup3\n        /* \"#utility.yul\":18524:18542   */\n      add\n        /* \"#utility.yul\":18516:18542   */\n      swap1\n      pop\n        /* \"#utility.yul\":18552:18623   */\n      tag_331\n        /* \"#utility.yul\":18620:18621   */\n      0x00\n        /* \"#utility.yul\":18609:18618   */\n      dup4\n        /* \"#utility.yul\":18605:18622   */\n      add\n        /* \"#utility.yul\":18596:18602   */\n      dup7\n        /* \"#utility.yul\":18552:18623   */\n      tag_109\n      jump\t// in\n    tag_331:\n        /* \"#utility.yul\":18670:18679   */\n      dup2\n        /* \"#utility.yul\":18664:18668   */\n      dup2\n        /* \"#utility.yul\":18660:18680   */\n      sub\n        /* \"#utility.yul\":18655:18657   */\n      0x20\n        /* \"#utility.yul\":18644:18653   */\n      dup4\n        /* \"#utility.yul\":18640:18658   */\n      add\n        /* \"#utility.yul\":18633:18681   */\n      mstore\n        /* \"#utility.yul\":18698:18786   */\n      tag_332\n        /* \"#utility.yul\":18781:18785   */\n      dup2\n        /* \"#utility.yul\":18772:18778   */\n      dup5\n        /* \"#utility.yul\":18764:18770   */\n      dup7\n        /* \"#utility.yul\":18698:18786   */\n      tag_141\n      jump\t// in\n    tag_332:\n        /* \"#utility.yul\":18690:18786   */\n      swap1\n      pop\n        /* \"#utility.yul\":18350:18793   */\n      swap5\n      swap4\n      pop\n      pop\n      pop\n      pop\n      jump\t// out\n        /* \"#utility.yul\":18799:19032   */\n    tag_77:\n        /* \"#utility.yul\":18838:18841   */\n      0x00\n        /* \"#utility.yul\":18861:18885   */\n      tag_334\n        /* \"#utility.yul\":18879:18884   */\n      dup3\n        /* \"#utility.yul\":18861:18885   */\n      tag_92\n      jump\t// in\n    tag_334:\n        /* \"#utility.yul\":18852:18885   */\n      swap2\n      pop\n        /* \"#utility.yul\":18907:18973   */\n      0xffffffffffffffffffffffffffffffffffffffffffffffffffffffffffffffff\n        /* \"#utility.yul\":18900:18905   */\n      dup3\n        /* \"#utility.yul\":18897:18974   */\n      sub\n        /* \"#utility.yul\":18894:18997   */\n      tag_335\n      jumpi\n        /* \"#utility.yul\":18977:18995   */\n      tag_336\n      tag_118\n      jump\t// in\n    tag_336:\n        /* \"#utility.yul\":18894:18997   */\n    tag_335:\n        /* \"#utility.yul\":19024:19025   */\n      0x01\n        /* \"#utility.yul\":19017:19022   */\n      dup3\n        /* \"#utility.yul\":19013:19026   */\n      add\n        /* \"#utility.yul\":19006:19026   */\n      swap1\n      pop\n        /* \"#utility.yul\":18799:19032   */\n      swap2\n      swap1\n      pop\n      jump\t// out\n        /* \"#utility.yul\":19038:19371   */\n    tag_88:\n        /* \"#utility.yul\":19161:19165   */\n      0x00\n        /* \"#utility.yul\":19199:19201   */\n      0x20\n        /* \"#utility.yul\":19188:19197   */\n      dup3\n        /* \"#utility.yul\":19184:19202   */\n      add\n        /* \"#utility.yul\":19176:19202   */\n      swap1\n      pop\n        /* \"#utility.yul\":19248:19257   */\n      dup2\n        /* \"#utility.yul\":19242:19246   */\n      dup2\n        /* \"#utility.yul\":19238:19258   */\n      sub\n        /* \"#utility.yul\":19234:19235   */\n      0x00\n        /* \"#utility.yul\":19223:19232   */\n      dup4\n        /* \"#utility.yul\":19219:19236   */\n      add\n        /* \"#utility.yul\":19212:19259   */\n      mstore\n        /* \"#utility.yul\":19276:19364   */\n      tag_338\n        /* \"#utility.yul\":19359:19363   */\n      dup2\n        /* \"#utility.yul\":19350:19356   */\n      dup5\n        /* \"#utility.yul\":19342:19348   */\n      dup7\n        /* \"#utility.yul\":19276:19364   */\n      tag_141\n      jump\t// in\n    tag_338:\n        /* \"#utility.yul\":19268:19364   */\n      swap1\n      pop\n        /* \"#utility.yul\":19038:19371   */\n      swap4\n      swap3\n      pop\n      pop\n      pop\n      jump\t// out\n\n    auxdata: 0xa26469706673582212200ec916eb1fd67b0f1ab246e838017586e5ec70b0585c57d581719c52128a4b7764736f6c63430008210033\n}\n",
    "bytecode": {
      "linkReferences": {},
      "object": "6080604052348015600e575f5ffd5b506114328061001c5f395ff3fe608060405234801561000f575f5ffd5b5060043610610060575f3560e01c80631070c20514610064578063598bf048146100805780637c2e2cf51461009c5780638d977672146100b8578063d3b5c016146100ed578063fdc3d8d714610109575b5f5ffd5b61007e60048036038101906100799190610aaf565b610127565b005b61009a60048036038101906100959190610aed565b610333565b005b6100b660048036038101906100b19190610b79565b61059d565b005b6100d260048036038101906100cd9190610aed565b610855565b6040516100e496959493929190610c92565b60405180910390f35b61010760048036038101906101029190610cf8565b61095e565b005b610111610a15565b60405161011e9190610d55565b60405180910390f35b5f60015f8481526020019081526020015f209050805f015f9054906101000a900473ffffffffffffffffffffffffffffffffffffffff1673ffffffffffffffffffffffffffffffffffffffff163373ffffffffffffffffffffffffffffffffffffffff16146101cb576040517f08c379a00000000000000000000000000000000000000000000000000000000081526004016101c290610db8565b60405180910390fd5b8060030160149054906101000a900460ff1661021c576040517f08c379a000000000000000000000000000000000000000000000000000000000815260040161021390610e20565b60405180910390fd5b5f8160030160146101000a81548160ff021916908315150217905550806003015f9054906101000a900473ffffffffffffffffffffffffffffffffffffffff1673ffffffffffffffffffffffffffffffffffffffff1663a9059cbb8383600201546040518363ffffffff1660e01b815260040161029a929190610e3e565b6020604051808303815f875af11580156102b6573d5f5f3e3d5ffd5b505050506040513d601f19601f820116820180604052508101906102da9190610e8f565b508173ffffffffffffffffffffffffffffffffffffffff16837f94407969cf60f998494a152d3513fb23ce8cae640c40da2135ccb07d8bfaaa4383600201546040516103269190610d55565b60405180910390a3505050565b5f60015f8381526020019081526020015f209050805f015f9054906101000a900473ffffffffffffffffffffffffffffffffffffffff1673ffffffffffffffffffffffffffffffffffffffff163373ffffffffffffffffffffffffffffffffffffffff16146103d7576040517f08c379a00000000000000000000000000000000000000000000000000000000081526004016103ce90610db8565b60405180910390fd5b8060030160149054906101000a900460ff16610428576040517f08c379a000000000000000000000000000000000000000000000000000000000815260040161041f90610e20565b60405180910390fd5b62093a80816004015461043b9190610ee7565b421161047c576040517f08c379a000000000000000000000000000000000000000000000000000000000815260040161047390610f64565b60405180910390fd5b5f8160030160146101000a81548160ff021916908315150217905550806003015f9054906101000a900473ffffffffffffffffffffffffffffffffffffffff1673ffffffffffffffffffffffffffffffffffffffff1663a9059cbb825f015f9054906101000a900473ffffffffffffffffffffffffffffffffffffffff1683600201546040518363ffffffff1660e01b815260040161051c929190610e3e565b6020604051808303815f875af1158015610538573d5f5f3e3d5ffd5b505050506040513d601f19601f8201168201806040525081019061055c9190610e8f565b50817fae56392eb9559d3ab3e0e52db0fb1720db8d4771acf5138c09c426ee15c3cdad82600201546040516105919190610d55565b60405180910390a25050565b5f83116105df576040517f08c379a00000000000000000000000000000000000000000000000000000000081526004016105d690610fcc565b60405180910390fd5b8373ffffffffffffffffffffffffffffffffffffffff166323b872dd3330866040518463ffffffff1660e01b815260040161061c93929190610fea565b6020604051808303815f875af1158015610638573d5f5f3e3d5ffd5b505050506040513d601f19601f8201168201806040525081019061065c9190610e8f565b506040518060c001604052803373ffffffffffffffffffffffffffffffffffffffff16815260200183838080601f0160208091040260200160405190810160405280939291908181526020018383808284375f81840152601f19601f8201169050808301925050505050505081526020018481526020018573ffffffffffffffffffffffffffffffffffffffff1681526020016001151581526020014281525060015f5f5481526020019081526020015f205f820151815f015f6101000a81548173ffffffffffffffffffffffffffffffffffffffff021916908373ffffffffffffffffffffffffffffffffffffffff1602179055506020820151816001019081610767919061125a565b50604082015181600201556060820151816003015f6101000a81548173ffffffffffffffffffffffffffffffffffffffff021916908373ffffffffffffffffffffffffffffffffffffffff16021790555060808201518160030160146101000a81548160ff02191690831515021790555060a082015181600401559050503373ffffffffffffffffffffffffffffffffffffffff165f547f05fddf931b4d1e3b95f2b6fb12ab475fe9555ce60fd2bfe66b84060f2dc22a2e85858560405161083193929190611363565b60405180910390a35f5f81548092919061084a90611393565b919050555050505050565b6001602052805f5260405f205f91509050805f015f9054906101000a900473ffffffffffffffffffffffffffffffffffffffff169080600101805461089990611079565b80601f01602080910402602001604051908101604052809291908181526020018280546108c590611079565b80156109105780601f106108e757610100808354040283529160200191610910565b820191905f5260205f20905b8154815290600101906020018083116108f357829003601f168201915b505050505090806002015490806003015f9054906101000a900473ffffffffffffffffffffffffffffffffffffffff16908060030160149054906101000a900460ff16908060040154905086565b60015f8481526020019081526020015f2060030160149054906101000a900460ff166109bf576040517f08c379a00000000000000000000000000000000000000000000000000000000081526004016109b690610e20565b60405180910390fd5b3373ffffffffffffffffffffffffffffffffffffffff16837fa90ae9720245855cd0178118b70cc1ee497003d06d996ee5c304a19e5b25d9158484604051610a089291906113da565b60405180910390a3505050565b5f5481565b5f5ffd5b5f5ffd5b5f819050919050565b610a3481610a22565b8114610a3e575f5ffd5b50565b5f81359050610a4f81610a2b565b92915050565b5f73ffffffffffffffffffffffffffffffffffffffff82169050919050565b5f610a7e82610a55565b9050919050565b610a8e81610a74565b8114610a98575f5ffd5b50565b5f81359050610aa981610a85565b92915050565b5f5f60408385031215610ac557610ac4610a1a565b5b5f610ad285828601610a41565b9250506020610ae385828601610a9b565b9150509250929050565b5f60208284031215610b0257610b01610a1a565b5b5f610b0f84828501610a41565b91505092915050565b5f5ffd5b5f5ffd5b5f5ffd5b5f5f83601f840112610b3957610b38610b18565b5b8235905067ffffffffffffffff811115610b5657610b55610b1c565b5b602083019150836001820283011115610b7257610b71610b20565b5b9250929050565b5f5f5f5f60608587031215610b9157610b90610a1a565b5b5f610b9e87828801610a9b565b9450506020610baf87828801610a41565b935050604085013567ffffffffffffffff811115610bd057610bcf610a1e565b5b610bdc87828801610b24565b925092505092959194509250565b610bf381610a74565b82525050565b5f81519050919050565b5f82825260208201905092915050565b8281835e5f83830152505050565b5f601f19601f8301169050919050565b5f610c3b82610bf9565b610c458185610c03565b9350610c55818560208601610c13565b610c5e81610c21565b840191505092915050565b610c7281610a22565b82525050565b5f8115159050919050565b610c8c81610c78565b82525050565b5f60c082019050610ca55f830189610bea565b8181036020830152610cb78188610c31565b9050610cc66040830187610c69565b610cd36060830186610bea565b610ce06080830185610c83565b610ced60a0830184610c69565b979650505050505050565b5f5f5f60408486031215610d0f57610d0e610a1a565b5b5f610d1c86828701610a41565b935050602084013567ffffffffffffffff811115610d3d57610d3c610a1e565b5b610d4986828701610b24565b92509250509250925092565b5f602082019050610d685f830184610c69565b92915050565b7f4f6e6c792063726561746f7200000000000000000000000000000000000000005f82015250565b5f610da2600c83610c03565b9150610dad82610d6e565b602082019050919050565b5f6020820190508181035f830152610dcf81610d96565b9050919050565b7f5461736b206e6f742061637469766500000000000000000000000000000000005f82015250565b5f610e0a600f83610c03565b9150610e1582610dd6565b602082019050919050565b5f6020820190508181035f830152610e3781610dfe565b9050919050565b5f604082019050610e515f830185610bea565b610e5e6020830184610c69565b9392505050565b610e6e81610c78565b8114610e78575f5ffd5b50565b5f81519050610e8981610e65565b92915050565b5f60208284031215610ea457610ea3610a1a565b5b5f610eb184828501610e7b565b91505092915050565b7f4e487b71000000000000000000000000000000000000000000000000000000005f52601160045260245ffd5b5f610ef182610a22565b9150610efc83610a22565b9250828201905080821115610f1457610f13610eba565b5b92915050565b7f54696d656c6f636b2061637469766500000000000000000000000000000000005f82015250565b5f610f4e600f83610c03565b9150610f5982610f1a565b602082019050919050565b5f6020820190508181035f830152610f7b81610f42565b9050919050565b7f416d6f756e74206d757374206265203e203000000000000000000000000000005f82015250565b5f610fb6601283610c03565b9150610fc182610f82565b602082019050919050565b5f6020820190508181035f830152610fe381610faa565b9050919050565b5f606082019050610ffd5f830186610bea565b61100a6020830185610bea565b6110176040830184610c69565b949350505050565b7f4e487b71000000000000000000000000000000000000000000000000000000005f52604160045260245ffd5b7f4e487b71000000000000000000000000000000000000000000000000000000005f52602260045260245ffd5b5f600282049050600182168061109057607f821691505b6020821081036110a3576110a261104c565b5b50919050565b5f819050815f5260205f209050919050565b5f6020601f8301049050919050565b5f82821b905092915050565b5f600883026111057fffffffffffffffffffffffffffffffffffffffffffffffffffffffffffffffff826110ca565b61110f86836110ca565b95508019841693508086168417925050509392505050565b5f819050919050565b5f61114a61114561114084610a22565b611127565b610a22565b9050919050565b5f819050919050565b61116383611130565b61117761116f82611151565b8484546110d6565b825550505050565b5f5f905090565b61118e61117f565b61119981848461115a565b505050565b5f5b828110156111bf576111b45f828401611186565b6001810190506111a0565b505050565b601f8211156112125782821115611211576111de816110a9565b6111e7836110bb565b6111f0856110bb565b60208610156111fd575f90505b80830161120c8284038261119e565b505050505b5b505050565b5f82821c905092915050565b5f6112325f1984600802611217565b1980831691505092915050565b5f61124a8383611223565b9150826002028217905092915050565b61126382610bf9565b67ffffffffffffffff81111561127c5761127b61101f565b5b6112868254611079565b6112918282856111c4565b5f60209050601f8311600181146112c2575f84156112b0578287015190505b6112ba858261123f565b865550611321565b601f1984166112d0866110a9565b5f5b828110156112f7578489015182556001820191506020850194506020810190506112d2565b868310156113145784890151611310601f891682611223565b8355505b6001600288020188555050505b505050505050565b828183375f83830152505050565b5f6113428385610c03565b935061134f838584611329565b61135883610c21565b840190509392505050565b5f6040820190506113765f830186610c69565b8181036020830152611389818486611337565b9050949350505050565b5f61139d82610a22565b91507fffffffffffffffffffffffffffffffffffffffffffffffffffffffffffffffff82036113cf576113ce610eba565b5b600182019050919050565b5f6020820190508181035f8301526113f3818486611337565b9050939250505056fea26469706673582212200ec916eb1fd67b0f1ab246e838017586e5ec70b0585c57d581719c52128a4b7764736f6c63430008210033",
      "opcodes": "PUSH1 0x80 PUSH1 0x40 MSTORE CALLVALUE DUP1 ISZERO PUSH1 0xE JUMPI PUSH0 PUSH0 REVERT JUMPDEST POP PUSH2 0x1432 DUP1 PUSH2 0x1C PUSH0 CODECOPY PUSH0 RETURN INVALID PUSH1 0x80 PUSH1 0x40 MSTORE CALLVALUE DUP1 ISZERO PUSH2 0xF JUMPI PUSH0 PUSH0 REVERT JUMPDEST POP PUSH1 0x4 CALLDATASIZE LT PUSH2 0x60 JUMPI PUSH0 CALLDATALOAD PUSH1 0xE0 SHR DUP1 PUSH4 0x1070C205 EQ PUSH2 0x64 JUMPI DUP1 PUSH4 0x598BF048 EQ PUSH2 0x80 JUMPI DUP1 PUSH4 0x7C2E2CF5 EQ PUSH2 0x9C JUMPI DUP1 PUSH4 0x8D977672 EQ PUSH2 0xB8 JUMPI DUP1 PUSH4 0xD3B5C016 EQ PUSH2 0xED JUMPI DUP1 PUSH4 0xFDC3D8D7 EQ PUSH2 0x109 JUMPI JUMPDEST PUSH0 PUSH0 REVERT JUMPDEST PUSH2 0x7E PUSH1 0x4 DUP1 CALLDATASIZE SUB DUP2 ADD SWAP1 PUSH2 0x79 SWAP2 SWAP1 PUSH2 0xAAF JUMP JUMPDEST PUSH2 0x127 JUMP JUMPDEST STOP JUMPDEST PUSH2 0x9A PUSH1 0x4 DUP1 CALLDATASIZE SUB DUP2 ADD SWAP1 PUSH2 0x95 SWAP2 SWAP1 PUSH2 0xAED JUMP JUMPDEST PUSH2 0x333 JUMP JUMPDEST STOP JUMPDEST PUSH2 0xB6 PUSH1 0x4 DUP1 CALLDATASIZE SUB DUP2 ADD SWAP1 PUSH2 0xB1 SWAP2 SWAP1 PUSH2 0xB79 JUMP JUMPDEST PUSH2 0x59D JUMP JUMPDEST STOP JUMPDEST PUSH2 0xD2 PUSH1 0x4 DUP1 CALLDATASIZE SUB DUP2 ADD SWAP1 PUSH2 0xCD SWAP2 SWAP1 PUSH2 0xAED JUMP JUMPDEST PUSH2 0x855 JUMP JUMPDEST PUSH1 0x40 MLOAD PUSH2 0xE4 SWAP7 SWAP6 SWAP5 SWAP4 SWAP3 SWAP2 SWAP1 PUSH2 0xC92 JUMP JUMPDEST PUSH1 0x40 MLOAD DUP1 SWAP2 SUB SWAP1 RETURN JUMPDEST PUSH2 0x107 PUSH1 0x4 DUP1 CALLDATASIZE SUB DUP2 ADD SWAP1 PUSH2 0x102 SWAP2 SWAP1 PUSH2 0xCF8 JUMP JUMPDEST PUSH2 0x95E JUMP JUMPDEST STOP JUMPDEST PUSH2 0x111 PUSH2 0xA15 JUMP JUMPDEST PUSH1 0x40 MLOAD PUSH2 0x11E SWAP2 SWAP1 PUSH2 0xD55 JUMP JUMPDEST PUSH1 0x40 MLOAD DUP1 SWAP2 SUB SWAP1 RETURN JUMPDEST PUSH0 PUSH1 0x1 PUSH0 DUP5 DUP2 MSTORE PUSH1 0x20 ADD SWAP1 DUP2 MSTORE PUSH1 0x20 ADD PUSH0 KECCAK256 SWAP1 POP DUP1 PUSH0 ADD PUSH0 SWAP1 SLOAD SWAP1 PUSH2 0x100 EXP SWAP1 DIV PUSH20 0xFFFFFFFFFFFFFFFFFFFFFFFFFFFFFFFFFFFFFFFF AND PUSH20 0xFFFFFFFFFFFFFFFFFFFFFFFFFFFFFFFFFFFFFFFF AND CALLER PUSH20 0xFFFFFFFFFFFFFFFFFFFFFFFFFFFFFFFFFFFFFFFF AND EQ PUSH2 0x1CB JUMPI PUSH1 0x40 MLOAD PUSH32 0x8C379A000000000000000000000000000000000000000000000000000000000 DUP2 MSTORE PUSH1 0x4 ADD PUSH2 0x1C2 SWAP1 PUSH2 0xDB8 JUMP JUMPDEST PUSH1 0x40 MLOAD DUP1 SWAP2 SUB SWAP1 REVERT JUMPDEST DUP1 PUSH1 0x3 ADD PUSH1 0x14 SWAP1 SLOAD SWAP1 PUSH2 0x100 EXP SWAP1 DIV PUSH1 0xFF AND PUSH2 0x21C JUMPI PUSH1 0x40 MLOAD PUSH32 0x8C379A000000000000000000000000000000000000000000000000000000000 DUP2 MSTORE PUSH1 0x4 ADD PUSH2 0x213 SWAP1 PUSH2 0xE20 JUMP JUMPDEST PUSH1 0x40 MLOAD DUP1 SWAP2 SUB SWAP1 REVERT JUMPDEST PUSH0 DUP2 PUSH1 0x3 ADD PUSH1 0x14 PUSH2 0x100 EXP DUP2 SLOAD DUP2 PUSH1 0xFF MUL NOT AND SWAP1 DUP4 ISZERO ISZERO MUL OR SWAP1 SSTORE POP DUP1 PUSH1 0x3 ADD PUSH0 SWAP1 SLOAD SWAP1 PUSH2 0x100 EXP SWAP1 DIV PUSH20 0xFFFFFFFFFFFFFFFFFFFFFFFFFFFFFFFFFFFFFFFF AND PUSH20 0xFFFFFFFFFFFFFFFFFFFFFFFFFFFFFFFFFFFFFFFF AND PUSH4 0xA9059CBB DUP4 DUP4 PUSH1 0x2 ADD SLOAD PUSH1 0x40 MLOAD DUP4 PUSH4 0xFFFFFFFF AND PUSH1 0xE0 SHL DUP2 MSTORE PUSH1 0x4 ADD PUSH2 0x29A SWAP3 SWAP2 SWAP1 PUSH2 0xE3E JUMP JUMPDEST PUSH1 0x20 PUSH1 0x40 MLOAD DUP1 DUP4 SUB DUP2 PUSH0 DUP8 GAS CALL ISZERO DUP1 ISZERO PUSH2 0x2B6 JUMPI RETURNDATASIZE PUSH0 PUSH0 RETURNDATACOPY RETURNDATASIZE PUSH0 REVERT JUMPDEST POP POP POP POP PUSH1 0x40 MLOAD RETURNDATASIZE PUSH1 0x1F NOT PUSH1 0x1F DUP3 ADD AND DUP3 ADD DUP1 PUSH1 0x40 MSTORE POP DUP2 ADD SWAP1 PUSH2 0x2DA SWAP2 SWAP1 PUSH2 0xE8F JUMP JUMPDEST POP DUP2 PUSH20 0xFFFFFFFFFFFFFFFFFFFFFFFFFFFFFFFFFFFFFFFF AND DUP4 PUSH32 0x94407969CF60F998494A152D3513FB23CE8CAE640C40DA2135CCB07D8BFAAA43 DUP4 PUSH1 0x2 ADD SLOAD PUSH1 0x40 MLOAD PUSH2 0x326 SWAP2 SWAP1 PUSH2 0xD55 JUMP JUMPDEST PUSH1 0x40 MLOAD DUP1 SWAP2 SUB SWAP1 LOG3 POP POP POP JUMP JUMPDEST PUSH0 PUSH1 0x1 PUSH0 DUP4 DUP2 MSTORE PUSH1 0x20 ADD SWAP1 DUP2 MSTORE PUSH1 0x20 ADD PUSH0 KECCAK256 SWAP1 POP DUP1 PUSH0 ADD PUSH0 SWAP1 SLOAD SWAP1 PUSH2 0x100 EXP SWAP1 DIV PUSH20 0xFFFFFFFFFFFFFFFFFFFFFFFFFFFFFFFFFFFFFFFF AND PUSH20 0xFFFFFFFFFFFFFFFFFFFFFFFFFFFFFFFFFFFFFFFF AND CALLER PUSH20 0xFFFFFFFFFFFFFFFFFFFFFFFFFFFFFFFFFFFFFFFF AND EQ PUSH2 0x3D7 JUMPI PUSH1 0x40 MLOAD PUSH32 0x8C379A000000000000000000000000000000000000000000000000000000000 DUP2 MSTORE PUSH1 0x4 ADD PUSH2 0x3CE SWAP1 PUSH2 0xDB8 JUMP JUMPDEST PUSH1 0x40 MLOAD DUP1 SWAP2 SUB SWAP1 REVERT JUMPDEST DUP1 PUSH1 0x3 ADD PUSH1 0x14 SWAP1 SLOAD SWAP1 PUSH2 0x100 EXP SWAP1 DIV PUSH1 0xFF AND PUSH2 0x428 JUMPI PUSH1 0x40 MLOAD PUSH32 0x8C379A000000000000000000000000000000000000000000000000000000000 DUP2 MSTORE PUSH1 0x4 ADD PUSH2 0x41F SWAP1 PUSH2 0xE20 JUMP JUMPDEST PUSH1 0x40 MLOAD DUP1 SWAP2 SUB SWAP1 REVERT JUMPDEST PUSH3 0x93A80 DUP2 PUSH1 0x4 ADD SLOAD PUSH2 0x43B SWAP2 SWAP1 PUSH2 0xEE7 JUMP JUMPDEST TIMESTAMP GT PUSH2 0x47C JUMPI PUSH1 0x40 MLOAD PUSH32 0x8C379A000000000000000000000000000000000000000000000000000000000 DUP2 MSTORE PUSH1 0x4 ADD PUSH2 0x473 SWAP1 PUSH2 0xF64 JUMP JUMPDEST PUSH1 0x40 MLOAD DUP1 SWAP2 SUB SWAP1 REVERT JUMPDEST PUSH0 DUP2 PUSH1 0x3 ADD PUSH1 0x14 PUSH2 0x100 EXP DUP2 SLOAD DUP2 PUSH1 0xFF MUL NOT AND SWAP1 DUP4 ISZERO ISZERO MUL OR SWAP1 SSTORE POP DUP1 PUSH1 0x3 ADD PUSH0 SWAP1 SLOAD SWAP1 PUSH2 0x100 EXP SWAP1 DIV PUSH20 0xFFFFFFFFFFFFFFFFFFFFFFFFFFFFFFFFFFFFFFFF AND PUSH20 0xFFFFFFFFFFFFFFFFFFFFFFFFFFFFFFFFFFFFFFFF AND PUSH4 0xA9059CBB DUP3 PUSH0 ADD PUSH0 SWAP1 SLOAD SWAP1 PUSH2 0x100 EXP SWAP1 DIV PUSH20 0xFFFFFFFFFFFFFFFFFFFFFFFFFFFFFFFFFFFFFFFF AND DUP4 PUSH1 0x2 ADD SLOAD PUSH1 0x40 MLOAD DUP4 PUSH4 0xFFFFFFFF AND PUSH1 0xE0 SHL DUP2 MSTORE PUSH1 0x4 ADD PUSH2 0x51C SWAP3 SWAP2 SWAP1 PUSH2 0xE3E JUMP JUMPDEST PUSH1 0x20 PUSH1 0x40 MLOAD DUP1 DUP4 SUB DUP2 PUSH0 DUP8 GAS CALL ISZERO DUP1 ISZERO PUSH2 0x538 JUMPI RETURNDATASIZE PUSH0 PUSH0 RETURNDATACOPY RETURNDATASIZE PUSH0 REVERT JUMPDEST POP POP POP POP PUSH1 0x40 MLOAD RETURNDATASIZE PUSH1 0x1F NOT PUSH1 0x1F DUP3 ADD AND DUP3 ADD DUP1 PUSH1 0x40 MSTORE POP DUP2 ADD SWAP1 PUSH2 0x55C SWAP2 SWAP1 PUSH2 0xE8F JUMP JUMPDEST POP DUP2 PUSH32 0xAE56392EB9559D3AB3E0E52DB0FB1720DB8D4771ACF5138C09C426EE15C3CDAD DUP3 PUSH1 0x2 ADD SLOAD PUSH1 0x40 MLOAD PUSH2 0x591 SWAP2 SWAP1 PUSH2 0xD55 JUMP JUMPDEST PUSH1 0x40 MLOAD DUP1 SWAP2 SUB SWAP1 LOG2 POP POP JUMP JUMPDEST PUSH0 DUP4 GT PUSH2 0x5DF JUMPI PUSH1 0x40 MLOAD PUSH32 0x8C379A000000000000000000000000000000000000000000000000000000000 DUP2 MSTORE PUSH1 0x4 ADD PUSH2 0x5D6 SWAP1 PUSH2 0xFCC JUMP JUMPDEST PUSH1 0x40 MLOAD DUP1 SWAP2 SUB SWAP1 REVERT JUMPDEST DUP4 PUSH20 0xFFFFFFFFFFFFFFFFFFFFFFFFFFFFFFFFFFFFFFFF AND PUSH4 0x23B872DD CALLER ADDRESS DUP7 PUSH1 0x40 MLOAD DUP5 PUSH4 0xFFFFFFFF AND PUSH1 0xE0 SHL DUP2 MSTORE PUSH1 0x4 ADD PUSH2 0x61C SWAP4 SWAP3 SWAP2 SWAP1 PUSH2 0xFEA JUMP JUMPDEST PUSH1 0x20 PUSH1 0x40 MLOAD DUP1 DUP4 SUB DUP2 PUSH0 DUP8 GAS CALL ISZERO DUP1 ISZERO PUSH2 0x638 JUMPI RETURNDATASIZE PUSH0 PUSH0 RETURNDATACOPY RETURNDATASIZE PUSH0 REVERT JUMPDEST POP POP POP POP PUSH1 0x40 MLOAD RETURNDATASIZE PUSH1 0x1F NOT PUSH1 0x1F DUP3 ADD AND DUP3 ADD DUP1 PUSH1 0x40 MSTORE POP DUP2 ADD SWAP1 PUSH2 0x65C SWAP2 SWAP1 PUSH2 0xE8F JUMP JUMPDEST POP PUSH1 0x40 MLOAD DUP1 PUSH1 0xC0 ADD PUSH1 0x40 MSTORE DUP1 CALLER PUSH20 0xFFFFFFFFFFFFFFFFFFFFFFFFFFFFFFFFFFFFFFFF AND DUP2 MSTORE PUSH1 0x20 ADD DUP4 DUP4 DUP1 DUP1 PUSH1 0x1F ADD PUSH1 0x20 DUP1 SWAP2 DIV MUL PUSH1 0x20 ADD PUSH1 0x40 MLOAD SWAP1 DUP2 ADD PUSH1 0x40 MSTORE DUP1 SWAP4 SWAP3 SWAP2 SWAP1 DUP2 DUP2 MSTORE PUSH1 0x20 ADD DUP4 DUP4 DUP1 DUP3 DUP5 CALLDATACOPY PUSH0 DUP2 DUP5 ADD MSTORE PUSH1 0x1F NOT PUSH1 0x1F DUP3 ADD AND SWAP1 POP DUP1 DUP4 ADD SWAP3 POP POP POP POP POP POP POP DUP2 MSTORE PUSH1 0x20 ADD DUP5 DUP2 MSTORE PUSH1 0x20 ADD DUP6 PUSH20 0xFFFFFFFFFFFFFFFFFFFFFFFFFFFFFFFFFFFFFFFF AND DUP2 MSTORE PUSH1 0x20 ADD PUSH1 0x1 ISZERO ISZERO DUP2 MSTORE PUSH1 0x20 ADD TIMESTAMP DUP2 MSTORE POP PUSH1 0x1 PUSH0 PUSH0 SLOAD DUP2 MSTORE PUSH1 0x20 ADD SWAP1 DUP2 MSTORE PUSH1 0x20 ADD PUSH0 KECCAK256 PUSH0 DUP3 ADD MLOAD DUP2 PUSH0 ADD PUSH0 PUSH2 0x100 EXP DUP2 SLOAD DUP2 PUSH20 0xFFFFFFFFFFFFFFFFFFFFFFFFFFFFFFFFFFFFFFFF MUL NOT AND SWAP1 DUP4 PUSH20 0xFFFFFFFFFFFFFFFFFFFFFFFFFFFFFFFFFFFFFFFF AND MUL OR SWAP1 SSTORE POP PUSH1 0x20 DUP3 ADD MLOAD DUP2 PUSH1 0x1 ADD SWAP1 DUP2 PUSH2 0x767 SWAP2 SWAP1 PUSH2 0x125A JUMP JUMPDEST POP PUSH1 0x40 DUP3 ADD MLOAD DUP2 PUSH1 0x2 ADD SSTORE PUSH1 0x60 DUP3 ADD MLOAD DUP2 PUSH1 0x3 ADD PUSH0 PUSH2 0x100 EXP DUP2 SLOAD DUP2 PUSH20 0xFFFFFFFFFFFFFFFFFFFFFFFFFFFFFFFFFFFFFFFF MUL NOT AND SWAP1 DUP4 PUSH20 0xFFFFFFFFFFFFFFFFFFFFFFFFFFFFFFFFFFFFFFFF AND MUL OR SWAP1 SSTORE POP PUSH1 0x80 DUP3 ADD MLOAD DUP2 PUSH1 0x3 ADD PUSH1 0x14 PUSH2 0x100 EXP DUP2 SLOAD DUP2 PUSH1 0xFF MUL NOT AND SWAP1 DUP4 ISZERO ISZERO MUL OR SWAP1 SSTORE POP PUSH1 0xA0 DUP3 ADD MLOAD DUP2 PUSH1 0x4 ADD SSTORE SWAP1 POP POP CALLER PUSH20 0xFFFFFFFFFFFFFFFFFFFFFFFFFFFFFFFFFFFFFFFF AND PUSH0 SLOAD PUSH32 0x5FDDF931B4D1E3B95F2B6FB12AB475FE9555CE60FD2BFE66B84060F2DC22A2E DUP6 DUP6 DUP6 PUSH1 0x40 MLOAD PUSH2 0x831 SWAP4 SWAP3 SWAP2 SWAP1 PUSH2 0x1363 JUMP JUMPDEST PUSH1 0x40 MLOAD DUP1 SWAP2 SUB SWAP1 LOG3 PUSH0 PUSH0 DUP2 SLOAD DUP1 SWAP3 SWAP2 SWAP1 PUSH2 0x84A SWAP1 PUSH2 0x1393 JUMP JUMPDEST SWAP2 SWAP1 POP SSTORE POP POP POP POP POP JUMP JUMPDEST PUSH1 0x1 PUSH1 0x20 MSTORE DUP1 PUSH0 MSTORE PUSH1 0x40 PUSH0 KECCAK256 PUSH0 SWAP2 POP SWAP1 POP DUP1 PUSH0 ADD PUSH0 SWAP1 SLOAD SWAP1 PUSH2 0x100 EXP SWAP1 DIV PUSH20 0xFFFFFFFFFFFFFFFFFFFFFFFFFFFFFFFFFFFFFFFF AND SWAP1 DUP1 PUSH1 0x1 ADD DUP1 SLOAD PUSH2 0x899 SWAP1 PUSH2 0x1079 JUMP JUMPDEST DUP1 PUSH1 0x1F ADD PUSH1 0x20 DUP1 SWAP2 DIV MUL PUSH1 0x20 ADD PUSH1 0x40 MLOAD SWAP1 DUP2 ADD PUSH1 0x40 MSTORE DUP1 SWAP3 SWAP2 SWAP1 DUP2 DUP2 MSTORE PUSH1 0x20 ADD DUP3 DUP1 SLOAD PUSH2 0x8C5 SWAP1 PUSH2 0x1079 JUMP JUMPDEST DUP1 ISZERO PUSH2 0x910 JUMPI DUP1 PUSH1 0x1F LT PUSH2 0x8E7 JUMPI PUSH2 0x100 DUP1 DUP4 SLOAD DIV MUL DUP4 MSTORE SWAP2 PUSH1 0x20 ADD SWAP2 PUSH2 0x910 JUMP JUMPDEST DUP3 ADD SWAP2 SWAP1 PUSH0 MSTORE PUSH1 0x20 PUSH0 KECCAK256 SWAP1 JUMPDEST DUP2 SLOAD DUP2 MSTORE SWAP1 PUSH1 0x1 ADD SWAP1 PUSH1 0x20 ADD DUP1 DUP4 GT PUSH2 0x8F3 JUMPI DUP3 SWAP1 SUB PUSH1 0x1F AND DUP3 ADD SWAP2 JUMPDEST POP POP POP POP POP SWAP1 DUP1 PUSH1 0x2 ADD SLOAD SWAP1 DUP1 PUSH1 0x3 ADD PUSH0 SWAP1 SLOAD SWAP1 PUSH2 0x100 EXP SWAP1 DIV PUSH20 0xFFFFFFFFFFFFFFFFFFFFFFFFFFFFFFFFFFFFFFFF AND SWAP1 DUP1 PUSH1 0x3 ADD PUSH1 0x14 SWAP1 SLOAD SWAP1 PUSH2 0x100 EXP SWAP1 DIV PUSH1 0xFF AND SWAP1 DUP1 PUSH1 0x4 ADD SLOAD SWAP1 POP DUP7 JUMP JUMPDEST PUSH1 0x1 PUSH0 DUP5 DUP2 MSTORE PUSH1 0x20 ADD SWAP1 DUP2 MSTORE PUSH1 0x20 ADD PUSH0 KECCAK256 PUSH1 0x3 ADD PUSH1 0x14 SWAP1 SLOAD SWAP1 PUSH2 0x100 EXP SWAP1 DIV PUSH1 0xFF AND PUSH2 0x9BF JUMPI PUSH1 0x40 MLOAD PUSH32 0x8C379A000000000000000000000000000000000000000000000000000000000 DUP2 MSTORE PUSH1 0x4 ADD PUSH2 0x9B6 SWAP1 PUSH2 0xE20 JUMP JUMPDEST PUSH1 0x40 MLOAD DUP1 SWAP2 SUB SWAP1 REVERT JUMPDEST CALLER PUSH20 0xFFFFFFFFFFFFFFFFFFFFFFFFFFFFFFFFFFFFFFFF AND DUP4 PUSH32 0xA90AE9720245855CD0178118B70CC1EE497003D06D996EE5C304A19E5B25D915 DUP5 DUP5 PUSH1 0x40 MLOAD PUSH2 0xA08 SWAP3 SWAP2 SWAP1 PUSH2 0x13DA JUMP JUMPDEST PUSH1 0x40 MLOAD DUP1 SWAP2 SUB SWAP1 LOG3 POP POP POP JUMP JUMPDEST PUSH0 SLOAD DUP2 JUMP JUMPDEST PUSH0 PUSH0 REVERT JUMPDEST PUSH0 PUSH0 REVERT JUMPDEST PUSH0 DUP2 SWAP1 POP SWAP2 SWAP1 POP JUMP JUMPDEST PUSH2 0xA34 DUP2 PUSH2 0xA22 JUMP JUMPDEST DUP2 EQ PUSH2 0xA3E JUMPI PUSH0 PUSH0 REVERT JUMPDEST POP JUMP JUMPDEST PUSH0 DUP2 CALLDATALOAD SWAP1 POP PUSH2 0xA4F DUP2 PUSH2 0xA2B JUMP JUMPDEST SWAP3 SWAP2 POP POP JUMP JUMPDEST PUSH0 PUSH20 0xFFFFFFFFFFFFFFFFFFFFFFFFFFFFFFFFFFFFFFFF DUP3 AND SWAP1 POP SWAP2 SWAP1 POP JUMP JUMPDEST PUSH0 PUSH2 0xA7E DUP3 PUSH2 0xA55 JUMP JUMPDEST SWAP1 POP SWAP2 SWAP1 POP JUMP JUMPDEST PUSH2 0xA8E DUP2 PUSH2 0xA74 JUMP JUMPDEST DUP2 EQ PUSH2 0xA98 JUMPI PUSH0 PUSH0 REVERT JUMPDEST POP JUMP JUMPDEST PUSH0 DUP2 CALLDATALOAD SWAP1 POP PUSH2 0xAA9 DUP2 PUSH2 0xA85 JUMP JUMPDEST SWAP3 SWAP2 POP POP JUMP JUMPDEST PUSH0 PUSH0 PUSH1 0x40 DUP4 DUP6 SUB SLT ISZERO PUSH2 0xAC5 JUMPI PUSH2 0xAC4 PUSH2 0xA1A JUMP JUMPDEST JUMPDEST PUSH0 PUSH2 0xAD2 DUP6 DUP3 DUP7 ADD PUSH2 0xA41 JUMP JUMPDEST SWAP3 POP POP PUSH1 0x20 PUSH2 0xAE3 DUP6 DUP3 DUP7 ADD PUSH2 0xA9B JUMP JUMPDEST SWAP2 POP POP SWAP3 POP SWAP3 SWAP1 POP JUMP JUMPDEST PUSH0 PUSH1 0x20 DUP3 DUP5 SUB SLT ISZERO PUSH2 0xB02 JUMPI PUSH2 0xB01 PUSH2 0xA1A JUMP JUMPDEST JUMPDEST PUSH0 PUSH2 0xB0F DUP5 DUP3 DUP6 ADD PUSH2 0xA41 JUMP JUMPDEST SWAP2 POP POP SWAP3 SWAP2 POP POP JUMP JUMPDEST PUSH0 PUSH0 REVERT JUMPDEST PUSH0 PUSH0 REVERT JUMPDEST PUSH0 PUSH0 REVERT JUMPDEST PUSH0 PUSH0 DUP4 PUSH1 0x1F DUP5 ADD SLT PUSH2 0xB39 JUMPI PUSH2 0xB38 PUSH2 0xB18 JUMP JUMPDEST JUMPDEST DUP3 CALLDATALOAD SWAP1 POP PUSH8 0xFFFFFFFFFFFFFFFF DUP2 GT ISZERO PUSH2 0xB56 JUMPI PUSH2 0xB55 PUSH2 0xB1C JUMP JUMPDEST JUMPDEST PUSH1 0x20 DUP4 ADD SWAP2 POP DUP4 PUSH1 0x1 DUP3 MUL DUP4 ADD GT ISZERO PUSH2 0xB72 JUMPI PUSH2 0xB71 PUSH2 0xB20 JUMP JUMPDEST JUMPDEST SWAP3 POP SWAP3 SWAP1 POP JUMP JUMPDEST PUSH0 PUSH0 PUSH0 PUSH0 PUSH1 0x60 DUP6 DUP8 SUB SLT ISZERO PUSH2 0xB91 JUMPI PUSH2 0xB90 PUSH2 0xA1A JUMP JUMPDEST JUMPDEST PUSH0 PUSH2 0xB9E DUP8 DUP3 DUP9 ADD PUSH2 0xA9B JUMP JUMPDEST SWAP5 POP POP PUSH1 0x20 PUSH2 0xBAF DUP8 DUP3 DUP9 ADD PUSH2 0xA41 JUMP JUMPDEST SWAP4 POP POP PUSH1 0x40 DUP6 ADD CALLDATALOAD PUSH8 0xFFFFFFFFFFFFFFFF DUP2 GT ISZERO PUSH2 0xBD0 JUMPI PUSH2 0xBCF PUSH2 0xA1E JUMP JUMPDEST JUMPDEST PUSH2 0xBDC DUP8 DUP3 DUP9 ADD PUSH2 0xB24 JUMP JUMPDEST SWAP3 POP SWAP3 POP POP SWAP3 SWAP6 SWAP2 SWAP5 POP SWAP3 POP JUMP JUMPDEST PUSH2 0xBF3 DUP2 PUSH2 0xA74 JUMP JUMPDEST DUP3 MSTORE POP POP JUMP JUMPDEST PUSH0 DUP2 MLOAD SWAP1 POP SWAP2 SWAP1 POP JUMP JUMPDEST PUSH0 DUP3 DUP3 MSTORE PUSH1 0x20 DUP3 ADD SWAP1 POP SWAP3 SWAP2 POP POP JUMP JUMPDEST DUP3 DUP2 DUP4 MCOPY PUSH0 DUP4 DUP4 ADD MSTORE POP POP POP JUMP JUMPDEST PUSH0 PUSH1 0x1F NOT PUSH1 0x1F DUP4 ADD AND SWAP1 POP SWAP2 SWAP1 POP JUMP JUMPDEST PUSH0 PUSH2 0xC3B DUP3 PUSH2 0xBF9 JUMP JUMPDEST PUSH2 0xC45 DUP2 DUP6 PUSH2 0xC03 JUMP JUMPDEST SWAP4 POP PUSH2 0xC55 DUP2 DUP6 PUSH1 0x20 DUP7 ADD PUSH2 0xC13 JUMP JUMPDEST PUSH2 0xC5E DUP2 PUSH2 0xC21 JUMP JUMPDEST DUP5 ADD SWAP2 POP POP SWAP3 SWAP2 POP POP JUMP JUMPDEST PUSH2 0xC72 DUP2 PUSH2 0xA22 JUMP JUMPDEST DUP3 MSTORE POP POP JUMP JUMPDEST PUSH0 DUP2 ISZERO ISZERO SWAP1 POP SWAP2 SWAP1 POP JUMP JUMPDEST PUSH2 0xC8C DUP2 PUSH2 0xC78 JUMP JUMPDEST DUP3 MSTORE POP POP JUMP JUMPDEST PUSH0 PUSH1 0xC0 DUP3 ADD SWAP1 POP PUSH2 0xCA5 PUSH0 DUP4 ADD DUP10 PUSH2 0xBEA JUMP JUMPDEST DUP2 DUP2 SUB PUSH1 0x20 DUP4 ADD MSTORE PUSH2 0xCB7 DUP2 DUP9 PUSH2 0xC31 JUMP JUMPDEST SWAP1 POP PUSH2 0xCC6 PUSH1 0x40 DUP4 ADD DUP8 PUSH2 0xC69 JUMP JUMPDEST PUSH2 0xCD3 PUSH1 0x60 DUP4 ADD DUP7 PUSH2 0xBEA JUMP JUMPDEST PUSH2 0xCE0 PUSH1 0x80 DUP4 ADD DUP6 PUSH2 0xC83 JUMP JUMPDEST PUSH2 0xCED PUSH1 0xA0 DUP4 ADD DUP5 PUSH2 0xC69 JUMP JUMPDEST SWAP8 SWAP7 POP POP POP POP POP POP POP JUMP JUMPDEST PUSH0 PUSH0 PUSH0 PUSH1 0x40 DUP5 DUP7 SUB SLT ISZERO PUSH2 0xD0F JUMPI PUSH2 0xD0E PUSH2 0xA1A JUMP JUMPDEST JUMPDEST PUSH0 PUSH2 0xD1C DUP7 DUP3 DUP8 ADD PUSH2 0xA41 JUMP JUMPDEST SWAP4 POP POP PUSH1 0x20 DUP5 ADD CALLDATALOAD PUSH8 0xFFFFFFFFFFFFFFFF DUP2 GT ISZERO PUSH2 0xD3D JUMPI PUSH2 0xD3C PUSH2 0xA1E JUMP JUMPDEST JUMPDEST PUSH2 0xD49 DUP7 DUP3 DUP8 ADD PUSH2 0xB24 JUMP JUMPDEST SWAP3 POP SWAP3 POP POP SWAP3 POP SWAP3 POP SWAP3 JUMP JUMPDEST PUSH0 PUSH1 0x20 DUP3 ADD SWAP1 POP PUSH2 0xD68 PUSH0 DUP4 ADD DUP5 PUSH2 0xC69 JUMP JUMPDEST SWAP3 SWAP2 POP POP JUMP JUMPDEST PUSH32 0x4F6E6C792063726561746F720000000000000000000000000000000000000000 PUSH0 DUP3 ADD MSTORE POP JUMP JUMPDEST PUSH0 PUSH2 0xDA2 PUSH1 0xC DUP4 PUSH2 0xC03 JUMP JUMPDEST SWAP2 POP PUSH2 0xDAD DUP3 PUSH2 0xD6E JUMP JUMPDEST PUSH1 0x20 DUP3 ADD SWAP1 POP SWAP2 SWAP1 POP JUMP JUMPDEST PUSH0 PUSH1 0x20 DUP3 ADD SWAP1 POP DUP2 DUP2 SUB PUSH0 DUP4 ADD MSTORE PUSH2 0xDCF DUP2 PUSH2 0xD96 JUMP JUMPDEST SWAP1 POP SWAP2 SWAP1 POP JUMP JUMPDEST PUSH32 0x5461736B206E6F74206163746976650000000000000000000000000000000000 PUSH0 DUP3 ADD MSTORE POP JUMP JUMPDEST PUSH0 PUSH2 0xE0A PUSH1 0xF DUP4 PUSH2 0xC03 JUMP JUMPDEST SWAP2 POP PUSH2 0xE15 DUP3 PUSH2 0xDD6 JUMP JUMPDEST PUSH1 0x20 DUP3 ADD SWAP1 POP SWAP2 SWAP1 POP JUMP JUMPDEST PUSH0 PUSH1 0x20 DUP3 ADD SWAP1 POP DUP2 DUP2 SUB PUSH0 DUP4 ADD MSTORE PUSH2 0xE37 DUP2 PUSH2 0xDFE JUMP JUMPDEST SWAP1 POP SWAP2 SWAP1 POP JUMP JUMPDEST PUSH0 PUSH1 0x40 DUP3 ADD SWAP1 POP PUSH2 0xE51 PUSH0 DUP4 ADD DUP6 PUSH2 0xBEA JUMP JUMPDEST PUSH2 0xE5E PUSH1 0x20 DUP4 ADD DUP5 PUSH2 0xC69 JUMP JUMPDEST SWAP4 SWAP3 POP POP POP JUMP JUMPDEST PUSH2 0xE6E DUP2 PUSH2 0xC78 JUMP JUMPDEST DUP2 EQ PUSH2 0xE78 JUMPI PUSH0 PUSH0 REVERT JUMPDEST POP JUMP JUMPDEST PUSH0 DUP2 MLOAD SWAP1 POP PUSH2 0xE89 DUP2 PUSH2 0xE65 JUMP JUMPDEST SWAP3 SWAP2 POP POP JUMP JUMPDEST PUSH0 PUSH1 0x20 DUP3 DUP5 SUB SLT ISZERO PUSH2 0xEA4 JUMPI PUSH2 0xEA3 PUSH2 0xA1A JUMP JUMPDEST JUMPDEST PUSH0 PUSH2 0xEB1 DUP5 DUP3 DUP6 ADD PUSH2 0xE7B JUMP JUMPDEST SWAP2 POP POP SWAP3 SWAP2 POP POP JUMP JUMPDEST PUSH32 0x4E487B7100000000000000000000000000000000000000000000000000000000 PUSH0 MSTORE PUSH1 0x11 PUSH1 0x4 MSTORE PUSH1 0x24 PUSH0 REVERT JUMPDEST PUSH0 PUSH2 0xEF1 DUP3 PUSH2 0xA22 JUMP JUMPDEST SWAP2 POP PUSH2 0xEFC DUP4 PUSH2 0xA22 JUMP JUMPDEST SWAP3 POP DUP3 DUP3 ADD SWAP1 POP DUP1 DUP3 GT ISZERO PUSH2 0xF14 JUMPI PUSH2 0xF13 PUSH2 0xEBA JUMP JUMPDEST JUMPDEST SWAP3 SWAP2 POP POP JUMP JUMPDEST PUSH32 0x54696D656C6F636B206163746976650000000000000000000000000000000000 PUSH0 DUP3 ADD MSTORE POP JUMP JUMPDEST PUSH0 PUSH2 0xF4E PUSH1 0xF DUP4 PUSH2 0xC03 JUMP JUMPDEST SWAP2 POP PUSH2 0xF59 DUP3 PUSH2 0xF1A JUMP JUMPDEST PUSH1 0x20 DUP3 ADD SWAP1 POP SWAP2 SWAP1 POP JUMP JUMPDEST PUSH0 PUSH1 0x20 DUP3 ADD SWAP1 POP DUP2 DUP2 SUB PUSH0 DUP4 ADD MSTORE PUSH2 0xF7B DUP2 PUSH2 0xF42 JUMP JUMPDEST SWAP1 POP SWAP2 SWAP1 POP JUMP JUMPDEST PUSH32 0x416D6F756E74206D757374206265203E20300000000000000000000000000000 PUSH0 DUP3 ADD MSTORE POP JUMP JUMPDEST PUSH0 PUSH2 0xFB6 PUSH1 0x12 DUP4 PUSH2 0xC03 JUMP JUMPDEST SWAP2 POP PUSH2 0xFC1 DUP3 PUSH2 0xF82 JUMP JUMPDEST PUSH1 0x20 DUP3 ADD SWAP1 POP SWAP2 SWAP1 POP JUMP JUMPDEST PUSH0 PUSH1 0x20 DUP3 ADD SWAP1 POP DUP2 DUP2 SUB PUSH0 DUP4 ADD MSTORE PUSH2 0xFE3 DUP2 PUSH2 0xFAA JUMP JUMPDEST SWAP1 POP SWAP2 SWAP1 POP JUMP JUMPDEST PUSH0 PUSH1 0x60 DUP3 ADD SWAP1 POP PUSH2 0xFFD PUSH0 DUP4 ADD DUP7 PUSH2 0xBEA JUMP JUMPDEST PUSH2 0x100A PUSH1 0x20 DUP4 ADD DUP6 PUSH2 0xBEA JUMP JUMPDEST PUSH2 0x1017 PUSH1 0x40 DUP4 ADD DUP5 PUSH2 0xC69 JUMP JUMPDEST SWAP5 SWAP4 POP POP POP POP JUMP JUMPDEST PUSH32 0x4E487B7100000000000000000000000000000000000000000000000000000000 PUSH0 MSTORE PUSH1 0x41 PUSH1 0x4 MSTORE PUSH1 0x24 PUSH0 REVERT JUMPDEST PUSH32 0x4E487B7100000000000000000000000000000000000000000000000000000000 PUSH0 MSTORE PUSH1 0x22 PUSH1 0x4 MSTORE PUSH1 0x24 PUSH0 REVERT JUMPDEST PUSH0 PUSH1 0x2 DUP3 DIV SWAP1 POP PUSH1 0x1 DUP3 AND DUP1 PUSH2 0x1090 JUMPI PUSH1 0x7F DUP3 AND SWAP2 POP JUMPDEST PUSH1 0x20 DUP3 LT DUP2 SUB PUSH2 0x10A3 JUMPI PUSH2 0x10A2 PUSH2 0x104C JUMP JUMPDEST JUMPDEST POP SWAP2 SWAP1 POP JUMP JUMPDEST PUSH0 DUP2 SWAP1 POP DUP2 PUSH0 MSTORE PUSH1 0x20 PUSH0 KECCAK256 SWAP1 POP SWAP2 SWAP1 POP JUMP JUMPDEST PUSH0 PUSH1 0x20 PUSH1 0x1F DUP4 ADD DIV SWAP1 POP SWAP2 SWAP1 POP JUMP JUMPDEST PUSH0 DUP3 DUP3 SHL SWAP1 POP SWAP3 SWAP2 POP POP JUMP JUMPDEST PUSH0 PUSH1 0x8 DUP4 MUL PUSH2 0x1105 PUSH32 0xFFFFFFFFFFFFFFFFFFFFFFFFFFFFFFFFFFFFFFFFFFFFFFFFFFFFFFFFFFFFFFFF DUP3 PUSH2 0x10CA JUMP JUMPDEST PUSH2 0x110F DUP7 DUP4 PUSH2 0x10CA JUMP JUMPDEST SWAP6 POP DUP1 NOT DUP5 AND SWAP4 POP DUP1 DUP7 AND DUP5 OR SWAP3 POP POP POP SWAP4 SWAP3 POP POP POP JUMP JUMPDEST PUSH0 DUP2 SWAP1 POP SWAP2 SWAP1 POP JUMP JUMPDEST PUSH0 PUSH2 0x114A PUSH2 0x1145 PUSH2 0x1140 DUP5 PUSH2 0xA22 JUMP JUMPDEST PUSH2 0x1127 JUMP JUMPDEST PUSH2 0xA22 JUMP JUMPDEST SWAP1 POP SWAP2 SWAP1 POP JUMP JUMPDEST PUSH0 DUP2 SWAP1 POP SWAP2 SWAP1 POP JUMP JUMPDEST PUSH2 0x1163 DUP4 PUSH2 0x1130 JUMP JUMPDEST PUSH2 0x1177 PUSH2 0x116F DUP3 PUSH2 0x1151 JUMP JUMPDEST DUP5 DUP5 SLOAD PUSH2 0x10D6 JUMP JUMPDEST DUP3 SSTORE POP POP POP POP JUMP JUMPDEST PUSH0 PUSH0 SWAP1 POP SWAP1 JUMP JUMPDEST PUSH2 0x118E PUSH2 0x117F JUMP JUMPDEST PUSH2 0x1199 DUP2 DUP5 DUP5 PUSH2 0x115A JUMP JUMPDEST POP POP POP JUMP JUMPDEST PUSH0 JUMPDEST DUP3 DUP2 LT ISZERO PUSH2 0x11BF JUMPI PUSH2 0x11B4 PUSH0 DUP3 DUP5 ADD PUSH2 0x1186 JUMP JUMPDEST PUSH1 0x1 DUP2 ADD SWAP1 POP PUSH2 0x11A0 JUMP JUMPDEST POP POP POP JUMP JUMPDEST PUSH1 0x1F DUP3 GT ISZERO PUSH2 0x1212 JUMPI DUP3 DUP3 GT ISZERO PUSH2 0x1211 JUMPI PUSH2 0x11DE DUP2 PUSH2 0x10A9 JUMP JUMPDEST PUSH2 0x11E7 DUP4 PUSH2 0x10BB JUMP JUMPDEST PUSH2 0x11F0 DUP6 PUSH2 0x10BB JUMP JUMPDEST PUSH1 0x20 DUP7 LT ISZERO PUSH2 0x11FD JUMPI PUSH0 SWAP1 POP JUMPDEST DUP1 DUP4 ADD PUSH2 0x120C DUP3 DUP5 SUB DUP3 PUSH2 0x119E JUMP JUMPDEST POP POP POP POP JUMPDEST JUMPDEST POP POP POP JUMP JUMPDEST PUSH0 DUP3 DUP3 SHR SWAP1 POP SWAP3 SWAP2 POP POP JUMP JUMPDEST PUSH0 PUSH2 0x1232 PUSH0 NOT DUP5 PUSH1 0x8 MUL PUSH2 0x1217 JUMP JUMPDEST NOT DUP1 DUP4 AND SWAP2 POP POP SWAP3 SWAP2 POP POP JUMP JUMPDEST PUSH0 PUSH2 0x124A DUP4 DUP4 PUSH2 0x1223 JUMP JUMPDEST SWAP2 POP DUP3 PUSH1 0x2 MUL DUP3 OR SWAP1 POP SWAP3 SWAP2 POP POP JUMP JUMPDEST PUSH2 0x1263 DUP3 PUSH2 0xBF9 JUMP JUMPDEST PUSH8 0xFFFFFFFFFFFFFFFF DUP2 GT ISZERO PUSH2 0x127C JUMPI PUSH2 0x127B PUSH2 0x101F JUMP JUMPDEST JUMPDEST PUSH2 0x1286 DUP3 SLOAD PUSH2 0x1079 JUMP JUMPDEST PUSH2 0x1291 DUP3 DUP3 DUP6 PUSH2 0x11C4 JUMP JUMPDEST PUSH0 PUSH1 0x20 SWAP1 POP PUSH1 0x1F DUP4 GT PUSH1 0x1 DUP2 EQ PUSH2 0x12C2 JUMPI PUSH0 DUP5 ISZERO PUSH2 0x12B0 JUMPI DUP3 DUP8 ADD MLOAD SWAP1 POP JUMPDEST PUSH2 0x12BA DUP6 DUP3 PUSH2 0x123F JUMP JUMPDEST DUP7 SSTORE POP PUSH2 0x1321 JUMP JUMPDEST PUSH1 0x1F NOT DUP5 AND PUSH2 0x12D0 DUP7 PUSH2 0x10A9 JUMP JUMPDEST PUSH0 JUMPDEST DUP3 DUP2 LT ISZERO PUSH2 0x12F7 JUMPI DUP5 DUP10 ADD MLOAD DUP3 SSTORE PUSH1 0x1 DUP3 ADD SWAP2 POP PUSH1 0x20 DUP6 ADD SWAP5 POP PUSH1 0x20 DUP2 ADD SWAP1 POP PUSH2 0x12D2 JUMP JUMPDEST DUP7 DUP4 LT ISZERO PUSH2 0x1314 JUMPI DUP5 DUP10 ADD MLOAD PUSH2 0x1310 PUSH1 0x1F DUP10 AND DUP3 PUSH2 0x1223 JUMP JUMPDEST DUP4 SSTORE POP JUMPDEST PUSH1 0x1 PUSH1 0x2 DUP9 MUL ADD DUP9 SSTORE POP POP POP JUMPDEST POP POP POP POP POP POP JUMP JUMPDEST DUP3 DUP2 DUP4 CALLDATACOPY PUSH0 DUP4 DUP4 ADD MSTORE POP POP POP JUMP JUMPDEST PUSH0 PUSH2 0x1342 DUP4 DUP6 PUSH2 0xC03 JUMP JUMPDEST SWAP4 POP PUSH2 0x134F DUP4 DUP6 DUP5 PUSH2 0x1329 JUMP JUMPDEST PUSH2 0x1358 DUP4 PUSH2 0xC21 JUMP JUMPDEST DUP5 ADD SWAP1 POP SWAP4 SWAP3 POP POP POP JUMP JUMPDEST PUSH0 PUSH1 0x40 DUP3 ADD SWAP1 POP PUSH2 0x1376 PUSH0 DUP4 ADD DUP7 PUSH2 0xC69 JUMP JUMPDEST DUP2 DUP2 SUB PUSH1 0x20 DUP4 ADD MSTORE PUSH2 0x1389 DUP2 DUP5 DUP7 PUSH2 0x1337 JUMP JUMPDEST SWAP1 POP SWAP5 SWAP4 POP POP POP POP JUMP JUMPDEST PUSH0 PUSH2 0x139D DUP3 PUSH2 0xA22 JUMP JUMPDEST SWAP2 POP PUSH32 0xFFFFFFFFFFFFFFFFFFFFFFFFFFFFFFFFFFFFFFFFFFFFFFFFFFFFFFFFFFFFFFFF DUP3 SUB PUSH2 0x13CF JUMPI PUSH2 0x13CE PUSH2 0xEBA JUMP JUMPDEST JUMPDEST PUSH1 0x1 DUP3 ADD SWAP1 POP SWAP2 SWAP1 POP JUMP JUMPDEST PUSH0 PUSH1 0x20 DUP3 ADD SWAP1 POP DUP2 DUP2 SUB PUSH0 DUP4 ADD MSTORE PUSH2 0x13F3 DUP2 DUP5 DUP7 PUSH2 0x1337 JUMP JUMPDEST SWAP1 POP SWAP4 SWAP3 POP POP POP JUMP INVALID LOG2 PUSH5 0x6970667358 0x22 SLT KECCAK256 0xE 0xC9 AND 0xEB 0x1F 0xD6 PUSH28 0xF1AB246E838017586E5EC70B0585C57D581719C52128A4B7764736F PUSH13 0x63430008210033000000000000 "
    },
    "gasEstimates": {
      "creation": {
        "codeDepositCost": "1034000",
        "executionCost": "1072",
        "totalCost": "1035072"
      },
      "external": {
        "nextTaskId()": "2512",
        "postTask(address,uint256,string)": "infinite",
        "reclaimBounty(uint256)": "infinite",
        "releaseBounty(uint256,address)": "infinite",
        "submitSolution(uint256,string)": "infinite",
        "tasks(uint256)": "infinite"
      }
    },
    "methodIdentifiers": {
      "nextTaskId()": "fdc3d8d7",
      "postTask(address,uint256,string)": "7c2e2cf5",
      "reclaimBounty(uint256)": "598bf048",
      "releaseBounty(uint256,address)": "1070c205",
      "submitSolution(uint256,string)": "d3b5c016",
      "tasks(uint256)": "8d977672"
    }
  },
  "storageLayout": {
    "storage": [
      {
        "astId": 37,
        "contract": "BountyBoard.sol:BountyBoard",
        "label": "nextTaskId",
        "offset": 0,
        "slot": "0",
        "type": "t_uint256"
      },
      {
        "astId": 42,
        "contract": "BountyBoard.sol:BountyBoard",
        "label": "tasks",
        "offset": 0,
        "slot": "1",
        "type": "t_mapping(t_uint256,t_struct(Task)35_storage)"
      }
    ],
    "types": {
      "t_address": {
        "encoding": "inplace",
        "label": "address",
        "numberOfBytes": "20"
      },
      "t_bool": {
        "encoding": "inplace",
        "label": "bool",
        "numberOfBytes": "1"
      },
      "t_mapping(t_uint256,t_struct(Task)35_storage)": {
        "encoding": "mapping",
        "key": "t_uint256",
        "label": "mapping(uint256 => struct BountyBoard.Task)",
        "numberOfBytes": "32",
        "value": "t_struct(Task)35_storage"
      },
      "t_string_storage": {
        "encoding": "bytes",
        "label": "string",
        "numberOfBytes": "32"
      },
      "t_struct(Task)35_storage": {
        "encoding": "inplace",
        "label": "struct BountyBoard.Task",
        "members": [
          {
            "astId": 24,
            "contract": "BountyBoard.sol:BountyBoard",
            "label": "creator",
            "offset": 0,
            "slot": "0",
            "type": "t_address"
          },
          {
            "astId": 26,
            "contract": "BountyBoard.sol:BountyBoard",
            "label": "description",
            "offset": 0,
            "slot": "1",
            "type": "t_string_storage"
          },
          {
            "astId": 28,
            "contract": "BountyBoard.sol:BountyBoard",
            "label": "amount",
            "offset": 0,
            "slot": "2",
            "type": "t_uint256"
          },
          {
            "astId": 30,
            "contract": "BountyBoard.sol:BountyBoard",
            "label": "token",
            "offset": 0,
            "slot": "3",
            "type": "t_address"
          },
          {
            "astId": 32,
            "contract": "BountyBoard.sol:BountyBoard",
            "label": "active",
            "offset": 20,
            "slot": "3",
            "type": "t_bool"
          },
          {
            "astId": 34,
            "contract": "BountyBoard.sol:BountyBoard",
            "label": "timestamp",
            "offset": 0,
            "slot": "4",
            "type": "t_uint256"
          }
        ],
        "numberOfBytes": "160"
      },
      "t_uint256": {
        "encoding": "inplace",
        "label": "uint256",
        "numberOfBytes": "32"
      }
    }
  },
  "transientStorageLayout": {
    "storage": [],
    "types": null
  },
  "userdoc": {
    "kind": "user",
    "methods": {},
    "version": 1
  }
}